:1000000000000420750300005D0300005F03000092
:1000100061030000630300006503000000000000AE
:100020000000000000000000000000006703000066
:1000300069030000000000006B0300006D03000076
:100040006F03000039AF0000355300006F0300005C
:10005000957500006F0300002D5200006F03000033
:1000600035C600006F0300006F0300006F0300003F
:100070006F0300006F0300006F0300006F030000B8
:100080006F0300004D3200006F0300006F0300009B
:100090006F03000011B900006F0300006F03000040
:1000A0006F0300006F0300006F0300006F03000088
:1000B0006F0300006F03000000000000000000005C
:1000C0006F0300006F0300006F0300006F03000068
:1000D0006F0300006F0300006F0300006F03000058
:1000E0006F0300006F0300006F03000000000000BA
:1000F000000000006F030000000000006F0300001C
:1001000000000000000000000000000000000000EF
:1001100000000000000000000000000000000000DF
:1001200000000000000000000000000000000000CF
:1001300000000000000000000000000000000000BF
:1001400000000000000000000000000000000000AF
:10015000000000000000000000000000000000009F
:10016000000000000000000000000000000000008F
:10017000000000000000000000000000000000007F
:10018000000000000000000000000000000000006F
:10019000000000000000000000000000000000005F
:1001A000000000000000000000000000000000004F
:1001B000000000000000000000000000000000003F
:1001C000000000000000000000000000000000002F
:1001D000000000000000000000000000000000001F
:1001E000000000000000000000000000000000000F
:1001F00000000000000000000000000000000000FF
:10020000354936480A1A02D0072291438D463449AF
:1002100034480A1A06D00722914381F30988022242
:1002200082F3148830483149314A00F044F83148AB
:100230003149324A00F03FF831483249324A00F041
:100240003AF832483249334A00F035F832483349F7
:10025000334A00F030F833483349344A00F02BF881
:1002600033483449344A00F026F8344834490022EF
:1002700000F02CF833483449002200F027F83348C6
:100280003349091A082902DB002202604160314A21
:1002900090471F481F49884205D00268043003B4C4
:1002A000904703BCF7E700208646EC46002000217B
:1002B000294A9047FEE7884207D0521A05D00378B2
:1002C00001300B700131013AF9D17047884202D0F8
:1002D00002700130FAE770470000042000E00320BC
:1002E00000000420000004200CE7000000000020B3
:1002F00020010020D0030000D00300008CD20000B9
:100300000CE700000000002000000020F8D20000F0
:10031000F8D20000F8D20000F8D20000F8D20000B5
:10032000F8D20000F8D20000F8D200000BE700007D
:100330002CE80000200100202001002020010020E6
:10034000DC100020DC100020DC100020DC1000207D
:10035000DC3000209D03000009820000FEE7FEE77C
:10036000FEE7FEE7FEE7FEE7FEE7FEE7FEE7FEE765
:1003700000F002B8FFF7FCBF0F484FF007018843B9
:1003800085460E4880470E48016841F470010160BF
:10039000BFF34F8FBFF36F8FFFF732BF09480A4992
:1003A0000A4A884207D0521A05D0037801300B70F0
:1003B0000131013AF9D17047000004204189000061
:1003C00088ED00E0F8D200000000002000000020CE
:1003D00000B5A1B00590049103920293049803F034
:1003E00055FE039B1593029B16930023179300233E
:1003F0008DF8603000231993229B1A9300231F93DA
:100400000FA91F9B0822049803F01AFF08231F93CB
:10041000119B1293BDF84030ADF84C30BDF842301E
:10042000ADF84E3000238DF851309DF83C3003F08C
:100430000303DBB2012B26D10F9BC3F395231C933F
:100440009DF83C30C3F3C203DBB28DF85030BDF8E9
:100450003C30C3F38313DBB21B931B9B9A0009A9A7
:100460001F9B049803F0ECFE1B9B9B001F9A1344F8
:100470001F9312AA09A915AB009313461B9A1C9847
:1004800000F0CEFF2FE09DF83C3003F00303DBB219
:10049000022B28D1BDF83E30C3F389139BB21E93C3
:1004A0009DF83C30C3F3C203DBB28DF850301E9B85
:1004B000082B28BF08231D9307A91F9B1D9A04988A
:1004C00003F0BEFE1F9A1D9B13441F931E9A1D9B93
:1004D000D31A1E9315AB12AA07A81D9901F042F872
:1004E0001E9B002BE3D1049803F0DFFD00BF21B079
:1004F0005DF804FB00B583B00190019B1B781A46A0
:100500000C4B9B5C002B05D0019B0433184606F076
:10051000E9F90BE0019B1B781A46064B9B5C002B0C
:1005200004D1019B0C33184605F064FB00BF03B0F7
:100530005DF804FB0408002000B587B00390029129
:1005400013468DF8073000230593039B1B781A464A
:10055000114B9B5C002B09D0039B04339DF80720B3
:100560000299184606F020FA05900FE0039B1B78CD
:100570001A46094B9B5C002B08D1039B0C339DF85A
:1005800007200299184605F0ADFB0590059B18461B
:1005900007B05DF804FB00BF0408002082B00190A2
:1005A0000091034B01221A7000BF02B0704700BFD8
:1005B0006001002030B58DB003468DF807301A4B2E
:1005C00002AC1D460FCD0FC495E80F0084E80F0064
:1005D000062302934FF0FF3303934FF0FF3304934E
:1005E0004FF0FF3305934FF0EB7308939DF80730FE
:1005F000002B01D00D4A00E0002202AB19460C4846
:1006000003F09AFF0B900B9B0A930A9B002B04D0DC
:10061000084A43210A9801F0C7FD074A9DF80730B0
:10062000137000BF0DB030BD50D300009D05000019
:1006300000000020F8D200006101002000B583B066
:1006400001238DF807309DF807301846FFF7B2FFF9
:1006500000BF03B05DF804FB00B589B003900291C0
:100660000192019B8DF81F30124B00221A709DF8E9
:100670001F301A4602991048FFF75EFF0690069B4E
:100680000593059B002B04D00C4A5321059801F0DB
:100690008BFD00BF0A4B1B78002B07D0054B1B7846
:1006A000DBB283F00103DBB2002BF3D100BF09B052
:1006B0005DF804FB6001002000000020F8D200007B
:1006C0006101002000B585B003900291054B0093B5
:1006D0004023054A02990398FFF77AFE00BF05B050
:1006E0005DF804FB590600002001002082B0019053
:1006F00000BF02B07047000000B583B0019005480C
:10070000FFF7F8FE0020FFF755FF00BF03B05DF8CC
:1007100004FB00BF0000002082B00190019BDB6859
:1007200001225A7100BF02B07047000000B583B0CB
:100730004FF0FF330193FFF781FF0421084800F0D9
:100740008BFD0190019B002B03DA0649482002F043
:100750008BFD0348FFF7E0FF00BF03B05DF804FB2B
:10076000D4D2000090D3000000B583B00190009176
:10077000019B1B681B6800990198984700BF03B054
:100780005DF804FB00B583B00190019B1B685B68BA
:100790000198984700BF03B05DF804FB00B583B033
:1007A0000190019B1B689B680198984700BF03B0AC
:1007B0005DF804FB82B001900B468DF80330019B7D
:1007C000DB689DF803201A7100BF02B0704782B049
:1007D0000190019BDB681B79184602B0704782B01C
:1007E0000190019BDB6801225A7100BF02B0704783
:1007F00082B00190019BDB685B79184602B07047BC
:1008000000B585B0019000910C4B00221A700C4885
:1008100003F0A0FB0390039B002B01D0039B08E097
:10082000084803F02DFD084A084BD31ADB08029351
:100830000023184605B05DF804FB00BFCC02002081
:10084000E4D20000ECD30000D4D200008CD200002F
:10085000024A034BD31ADB0818467047D4D2000073
:100860008CD2000000B587B001900B468DF80330A4
:100870009DF80330002B1FD0FFF7EAFF0490002300
:10088000059313E0059B9B000E4A13440393039BBF
:100890001B881A46019B1B689A4204D1019B059A4A
:1008A0001A60002309E0059B01330593059A049B18
:1008B0009A42E7D3052300E00023184607B05DF80D
:1008C00004FB00BF0000002000B585B001900B467E
:1008D0008DF803309DF8032001AB11461846FFF751
:1008E000C1FF0346002B07D1019BDB00054A1344DF
:1008F0000393039B1B6800E00023184605B05DF8D6
:1009000004FB00BF8CD2000084B001900B468DF830
:100910000330019BDB00174A134402939DF8033018
:10092000013B032B1CD801A252F823F03D09000023
:10093000450900004D0900005709000002238DF809
:100940000F3011E004238DF80F300DE0029B1B796E
:100950008DF80F3008E0029B5B798DF80F3003E0D3
:1009600000238DF80F3000BF9DF80F30184604B0FB
:10097000704700BF8CD2000084B00190009100232A
:100980008DF80F30019B1B7803F00403DBB2002BC2
:1009900024D0019B1B78C3F30103DBB2012B02D0EF
:1009A000022B0CD017E0009B1B68019A1288C2F33F
:1009B0008312D2B213449A1C009B1A600BE0009B76
:1009C0001B68019A5288C2F3891292B213449A1C8E
:1009D000009B1A6000BF01238DF80F309DF80F3087
:1009E000184604B07047000000B58BB00023ADF886
:1009F00026303E4802F0C7FD3D4802F0C4FD3D4BA5
:100A00009B6804933C4B1B680693049A069B134017
:100A100002339B00374A13440433089304AB19464E
:100A20000898FFF7A9FF0346002B09D0049A069BFC
:100A3000134002339B002F4A134404330893EDE71D
:100A400000BF0023079311E0049B5A1C0492069AEE
:100A50001340079A920001A90A44264902339B00D9
:100A60000B445B681360079B01330793079B012BC3
:100A7000EAD99DF80430C3F30103DBB2012B10D097
:100A8000022B1CD1BDF80A30ADF82630BDF8063077
:100A9000C3F389139BB203339A08049B1344049352
:100AA00013E0BDF80A30ADF82630BDF80430C3F3CA
:100AB0008313DBB21A46049B1344049305E00F49E9
:100AC0004FF4C27002F0D0FB00BF094802F067FD8E
:100AD0000590059B002B02D0049B064A9360BDF84D
:100AE000263018460BB05DF804FB00BFE40600207A
:100AF000E0060020CC0200201C000020FCD30000F7
:100B000000B585B00021074802F0C6FC0390039BA6
:100B10000293029B83F310030193019B184605B0D7
:100B20005DF804FBE806002000B589B0039002914F
:100B300001920093039B1B0C0793FFF7E1FF0690C4
:100B4000FFF786FE0246079B934204D3214940F2F9
:100B5000A91002F089FB069B1904009B5A1C0A9BF2
:100B60001340079A0A431C4902339B000B445A6006
:100B7000009A0A9B134002339B00174A1344043324
:100B80000593039B03F00703D9B2059A137861F329
:100B9000C5031370019B03F00F03D9B2059A1388A4
:100BA00061F389131380029BC3F31501059A13683F
:100BB00061F39F231360059A1378012161F3010308
:100BC0001370059A13786FF38203137000BF09B096
:100BD0005DF804FBFCD30000CC02002000B58BB014
:100BE0000390029113468DF80730039B023308935C
:100BF00001238DF81F30002001F00EFF3E4B5A6894
:100C0000029B1A603D4B1A683B4B99683A4B5B68F4
:100C1000CB1A13440133099314E00121384802F040
:100C200082FCFFF7E1FE05900599354802F07BFC58
:100C3000324B1A68304B99682F4B5B68CB1A1344C0
:100C400001330993089A099B9A42E6D89DF81F3010
:100C5000002B48D0002304939DF80730002B17D0B9
:100C60009DF81030012262F301038DF810309DF8D9
:100C7000103043F004038DF81030039B03F00F0392
:100C8000DAB2BDF8103062F38913ADF8103016E017
:100C90009DF81030022262F301038DF810309DF8A8
:100CA000103043F004038DF81030039BC3F30903A5
:100CB0009AB2BDF8123062F38F13ADF812300E4BBA
:100CC0005A680E4B1B68134002339B000A4A1344B8
:100CD00004330693049A069B1A60074B5A68089BD4
:100CE0001344054A5360002001F0AAFE9DF81F300E
:100CF00018460BB05DF804FBCC0200201C0000205D
:100D0000E806002000B58BB0059004910392029391
:100D10001F4B1B68079306AB012219460298FFF789
:100D20005DFF0346002B24D0069B0233099300236A
:100D3000089311E0089B9B00039A1A44099B591CD5
:100D4000099107990B401268124902339B000B442A
:100D50005A60089B01330893089A029B9A42E9D390
:100D6000069A079B00931346029A04990598FFF789
:100D7000DBFE084B1B78002B05D000BF00F068F8A5
:100D80000346002BFAD100BF0BB05DF804FB00BF97
:100D90001C000020CC02002000B583B0019000911F
:100DA0000023002200990198FFF7ACFF00BF03B0B9
:100DB0005DF804FB00B587B0039002910192019B9E
:100DC000059305AA012302990398FFF79BFF00BF33
:100DD00007B05DF804FB00B587B003900291019263
:100DE0000093019B0493009B059304AA022302999C
:100DF0000398FFF787FF00BF07B05DF804FB00B55D
:100E00008BB00390029101920093019B0593009B8C
:100E100006930C9B07930D9B08930E9B099305AAC1
:100E2000052302990398FFF76DFF00BF0BB05DF833
:100E300004FB0000054B9A68044B5B689A420CBFA8
:100E400001230023DBB21846704700BFCC0200200C
:100E500000B599B0FFF7EEFF0346002B01D0002349
:100E6000B9E19B4B0022C3F81824BFF34F8F00BF9A
:100E7000974B9B680493974B1B681093049A109BA5
:100E8000134002339B00924A13440433119300230E
:100E900017930023169300230F9304AB1946119860
:100EA000FFF76AFD0346002B19D0894BD3F818349D
:100EB000002B14D1864B5A68049B9A4205D8844B68
:100EC0005B68834A9360002385E1049A109B13407A
:100ED00002339B007E4A134404331193DDE7002361
:100EE000159311E0049B5A1C0492109A1340159A12
:100EF000920001A90A44764902339B000B445B68C7
:100F00001360159B01331593159B012BEAD99DF8AE
:100F1000043003F00303DBB2022B40F09C80BDF8E9
:100F20000630C3F389139BB20D93BDF80630C3F3AB
:100F300089139BB2502B28BF50239BB20C930C9B60
:100F4000C3F309039AB2BDF8063062F38F13ADF80C
:100F500006300C9B08330B939DF80430C3F3C20397
:100F6000DBB20F930B995C4802F0FFFF1790179BC1
:100F7000002B00F0D380179803F088F801A9169B86
:100F80000822179803F03EF9169B08331693049B2A
:100F9000DA43109B134001339B000A930C9A0A9B7F
:100FA0009A4242D90A9B002B08D0049A109B134006
:100FB00002339B00464A1344043300E0474B089336
:100FC0000A9B002B02D00A9BDBB201E00C9BDBB238
:100FD0008DF81F300A9B002B01D0404B00E000230E
:100FE00006930A9B002B06D00C9BDAB20A9BDBB25D
:100FF000D31ADBB200E000238DF817309DF81F20D4
:10100000169B0899179803F0FDF89DF81F30169A63
:1010100013441693069B002B16D09DF81720169BA1
:101020000699179803F0EEF80EE0049A109B13400F
:1010300002339B00264A134404330993169B0C9AEF
:101040000999179803F0DEF80D9B03339A08049B67
:101050001344049362E09DF8043003F00303DBB211
:10106000012B5BD1BDF80430C3F38313DBB2062B35
:1010700028BF0623DAB2BDF8043062F38913ADF855
:101080000430BDF80430C3F38313DBB202330E9394
:101090009DF80430C3F3C203DBB20F930E9B9B0099
:1010A00019460D4802F061FF1790179B002B35D0B1
:1010B000179802F0EBFF01A9169B0822179803F07E
:1010C000A1F8169B08331693002315931DE000BF6B
:1010D000CC0200201C000020E4D20000D802002036
:1010E000049B5A1C0492109A134002339B003C4A02
:1010F0001344191D169B0422179803F083F8169BBE
:1011000004331693159B01331593BDF80430C3F3D4
:101110008313DBB21A46159B9342E1D3179B002B36
:1011200039D02F4BD3F8103414932D4BD3F81834F7
:10113000002B1BD0179802F0B8FF46E000238DF873
:101140004F301498FFF754FB0346002B02D00123C5
:101150008DF84F309DF84F30002B03D0179914981D
:10116000FFF702FB149BDB681B681493149B002B96
:10117000E4D1179802F099FF002001F04DFC184BC4
:10118000D3F81834002B02D1049B154A9360002039
:1011900001F056FC19E0124BD3F81034129306E01C
:1011A0001298FFF7FBFA129BDB681B681293129BE5
:1011B000002BF5D10B4A0C4BD31ADB081B0443F070
:1011C00002030A491846FFF7E7FDFFF733FE03461F
:1011D00083F00103DBB2184619B05DF804FB00BFD1
:1011E000CC020020B4D200008CD2000050D4000009
:1011F00000B585B00023039323E0164BD3F81034D9
:10120000029301238DF807300FE00298FFF7DFFA11
:1012100003461A46039B934203D100238DF80730FF
:1012200006E0029BDB681B680293029B002BECD15B
:101230009DF80730002B01D0039B07E0039B01338F
:101240000393039B092BD8DD4FF0FF33184605B0FD
:101250005DF804FBCC02002000B585B001900B4680
:101260008DF80330FFF7C4FF0390039BB3F1FF3FFA
:1012700001D1039B22E0039BDBB219460198FFF7E3
:1012800099FA104BD3F81034002B08D10D4A019B6A
:10129000C2F81034019BDB6800221A600DE0094B94
:1012A000D3F81034DA68019BDB6812681A60054BCA
:1012B000D3F81034DB68019A1A60039B184605B016
:1012C0005DF804FBCC02002000B583B00C4BD3F8D2
:1012D000103401930A4B01221A7009E00198FFF7BC
:1012E0007EFA0198FFF74EFA019BDB681B680193B9
:1012F000019B002BF2D100BF00BF03B05DF804FBDF
:10130000CC02002082B00190009100BF02B0704773
:1013100010B584B003900291039BDB88002B0AD0A8
:10132000039BDB881A461F4B009313461E4A1F4936
:10133000029802F063FA039B1B7A052B2ED0039BC5
:101340005B7A002B12D0039B9B881A46039B1B7A67
:1013500019461046FFF7D8FA03461A46144B53F8BD
:1013600022301A461349029802F048FA039B1B6880
:1013700019460298FFF7C6FF039B1B7A1A460E4BCD
:1013800053F82240039B9B8800211846FFF79CFAE4
:10139000034622460949029802F030FA00BF04B021
:1013A00010BD00BF84D4000094D40000CCD4000051
:1013B00034000020E4D4000020000020E8D4000025
:1013C00000B585B00390029113468DF80730039B5A
:1013D0001B7A052B0FD0039B5B7A002B06D00D4B9D
:1013E0001B681A460C49029802F008FA0B49029849
:1013F00002F004FA07E09DF80730002B03D00749FC
:10140000029802F0FBF9029802F0D6F900BF05B08D
:101410005DF804FB34000020E4D40000F4D40000A4
:1014200030B58BB007900691059204930E9B1B7B01
:101430008DF827300E9B00221A730E990498FFF73F
:1014400067FF059B062B7FD801A252F823F000BF4F
:101450006D14000077140000871400009B14000036
:10146000B9140000E11400001115000007990E984E
:1014700002F0C4F969E0069B1B681A4607990E98AA
:1014800002F0BCF961E0069B1A68069B04331B68F6
:1014900007990E9802F0B2F957E0069B1A68069B6E
:1014A00004331968069B08331B6800930B460799A1
:1014B0000E9802F0A3F948E0069B1968069B0433D6
:1014C0001868069B08331B68069A0C321268019252
:1014D000009303460A4607990E9802F08FF934E00C
:1014E000069B1868069B04331C68069B08331B6820
:1014F000069A0C321268069910310968029101921D
:1015000000932346024607990E9802F077F91CE0F3
:10151000069B1C68069B04331D68069B08331B68EA
:10152000069A0C3212680699103109680698143030
:10153000006803900291019200932B46224607997E
:101540000E9802F05BF900E000BF00220E990498AB
:10155000FFF736FF0E9B9DF827201A7300BF0BB0D4
:1015600030BD00BF00B587B0039002910192009397
:10157000029B082B60D8009B1B7B8DF81330009BCF
:1015800000221A7300990198FFF7C2FE0023059309
:1015900014E0059A029B9A4209D2039A059B1344D0
:1015A0001B781A462649009802F028F903E02549DD
:1015B000009802F023F9059B01330593059B072B47
:1015C000E7D92149009802F019F90023059326E094
:1015D000059A029B9A421BD2039A059B13441B78DF
:1015E0008DF812309DF812307E2B0AD89DF81230FB
:1015F00018460BF0B9F90346002B02D09DF81230C3
:1016000000E02E231A461149009802F0F7F803E093
:101610000F49009802F0F2F8059B01330593059BF2
:10162000072BD5D9012200990198FFF7C9FE009B2D
:101630009DF813201A7300E000BF07B05DF804FBAB
:10164000F8D4000000D5000004D5000008D5000043
:101650000CD5000000B583B00190019B1B681846B3
:1016600000F01FF90346002B04D10B494FF4F6702C
:1016700001F0FAFD019B1B681F2B02D84FF0A0431D
:1016800006E0019B1B6803F01F02019B1A60034BDD
:10169000184603B05DF804FB10D5000000030050AD
:1016A00000B585B00190084611461A4603468DF8EC
:1016B00003300B468DF8023013468DF8013001AB34
:1016C0001846FFF7C7FF03909DF803209DF80230EE
:1016D0005B001A439DF801309B001A439DF81830B7
:1016E0001B0242EA03019DF81C301B04019A1943B6
:1016F000039B02F5E07243F8221000BF05B05DF8CD
:1017000004FB00B585B003900023019300230093F0
:101710000023012201210398FFF7C2FF00BF05B09B
:101720005DF804FB00B585B003900B468DF80B30D7
:101730009DF80B300022019200220092002200212D
:101740000398FFF7ADFF00BF05B05DF804FB00B5DF
:1017500085B0019001AB1846FFF77CFF0390019B19
:10176000012202FA03F31946039800F086F800BF3D
:1017700005B05DF804FB00B585B0019001AB1846DB
:10178000FFF768FF0390019B012202FA03F3194659
:10179000039800F07CF800BF05B05DF804FB00B5CD
:1017A00085B0019001AB1846FFF754FF0390039BEF
:1017B000D3F804350293029BDA43019B012101FA1D
:1017C00003F31A40039BC3F80825019B01229A40AA
:1017D000029B1A40039BC3F80C2500BF05B05DF8BF
:1017E00004FB00B583B001900091009B002B03D156
:1017F0000198FFF7C0FF02E00198FFF7A8FF00BFC4
:1018000003B05DF804FB00B585B0019001AB18464C
:10181000FFF720FF0390039800F01FF80246019B9A
:1018200022FA03F303F00103184605B05DF804FB48
:1018300000B585B0019001AB1846FFF70BFF039090
:10184000039800F012F80246019B22FA03F303F01A
:101850000103184605B05DF804FB82B00190019BBE
:10186000D3F81035184602B0704782B00190019B42
:10187000D3F80435184602B0704782B00190009149
:10188000019B009AC3F8082500BF02B0704782B0E0
:1018900001900091019B009AC3F80C2500BF02B093
:1018A000704784B00190019B5B090293002303936E
:1018B000029B002B03D0029B012B04D007E04FF0CA
:1018C000FF33039303E04FF6FF73039300BF019BC5
:1018D00003F01F030193039A019B22FA03F303F021
:1018E0000103002B14BF01230023DBB2184604B010
:1018F0007047000000B585B00190019B032B03D910
:1019000011493A2001F0B0FC104A019B13441B78A6
:101910001846FFF78DFF0346002B14BF0123002359
:101920008DF80F309DF80F30002B14BF01230023DA
:10193000DBB283F00103DBB203F00103DBB2184634
:1019400005B05DF804FB00BF44D5000084D500005D
:1019500000B583B00190019B032B03D907494120B7
:1019600001F082FC064A019B13441B7800211846B3
:10197000FFF737FF00BF03B05DF804FB44D500005C
:1019800084D5000000B583B00190019B032B03D9DF
:101990000749472001F068FC064A019B13441B7865
:1019A00001211846FFF71DFF00BF03B05DF804FBDF
:1019B00044D5000084D5000000B583B00023019316
:1019C00005E00198FFF7DEFF019B01330193019BC6
:1019D000032BF6D900BF00BF03B05DF804FB00B5D0
:1019E00083B00023019305E00198FFF7B1FF019B4D
:1019F00001330193019B032BF6D900BF00BF03B055
:101A00005DF804FB00B583B00190019B032B03D963
:101A100007495F2001F028FC064A019B13441B780C
:101A20001846FFF7BCFE00BF03B05DF804FB00BF23
:101A300044D5000084D5000000B583B00023019395
:101A400009E0094A019B13441B781846FFF759FE29
:101A5000019B01330193019B032BF2D9FFF7ACFFEC
:101A600000BF03B05DF804FB84D5000000B585B06D
:101A70000190019B032B03D91149AC2001F0F4FB29
:101A8000104A019B13441B781846FFF7BCFE03461F
:101A9000002B14BF012300238DF80F309DF80F3069
:101AA000002B14BF01230023DBB283F00103DBB260
:101AB00003F00103DBB2184605B05DF804FB00BF7C
:101AC00044D5000088D5000000B583B00023019301
:101AD0000AE0094A019B13441B7803211846FFF7CB
:101AE00021FE019B01330193019B032BF1D900BF20
:101AF00000BF03B05DF804FB88D5000084B00190FE
:101B00004FF0FF330293002303930DE00A4A039B37
:101B100013441B781A46019B934202D1039B029304
:101B200005E0039B01330393039B032BEED9029B38
:101B3000184604B0704700BF88D5000000B583B0D8
:101B40000190019B03F00103002B01D0FFF774FF0C
:101B5000019B03F00203002B01D0FFF7B5FF00BF8C
:101B600003B05DF804FB000084B003468DF8073035
:101B70009DF807305B08DBB21A460D4B9B5C8DF875
:101B80000F309DF8073003F00103002B04D09DF8BF
:101B90000F301B09DBB204E09DF80F3003F00F0398
:101BA000DBB28DF80E309DF80E30184604B0704749
:101BB0002007002084B003460A468DF807301346FC
:101BC0008DF806309DF8073003F00103002B01D09B
:101BD0000F2300E0F0238DF80F309DF8073003F05D
:101BE0000103002B04D09DF806301B01DBB201E09D
:101BF0009DF806308DF80E309DF807305B08DBB29B
:101C00001A46114B9A5C9DF807305B08DBB2194607
:101C10009DF80F301340DAB20B4B5A549DF8073041
:101C20005B08DBB21A46084B9A5C9DF807305B08EC
:101C3000DBB219469DF80E301343DAB2024B5A5408
:101C400000BF04B0704700BF2007002000B585B07A
:101C500003468DF807300023039310E00F4B1A68FA
:101C6000039BDB0013440293029B1B789DF8072023
:101C70009A4201D1029B0DE0039B01330393084B71
:101C80001B781A46039B9342E8DB0649882001F043
:101C9000EBFA0023184605B05DF804FBEC060020C3
:101CA000F006002098D5000000B585B003460A462E
:101CB0008DF8073013468DF806309DF8073018462A
:101CC000FFF7C4FF0390039B002B0BD0039B5B68C3
:101CD000002B07D0039B5B689DF806109DF807203A
:101CE0001046984700BF05B05DF804FB2DE9F04FA2
:101CF00085B003460A468DF80F3013468DF80E3036
:101D00009DF80F301846FFF72FFF0346042B00F213
:101D1000B48001A252F823F02D1D0000931D000095
:101D2000AF1D0000DF1D0000F51D00009DF80E3006
:101D3000002B00F09F809DF80F3001211846FFF71F
:101D400039FF002000F068FE9DF80F104FF00102EF
:101D50004FF00003A1F12004C1F1200003FA01F7C4
:101D600002FA04F4274322FA00F0074302FA01F6CC
:101D7000444BD3E9002346EA020100913B4301931F
:101D8000404BDDE90012C3E90012002000F058FECC
:101D900070E09DF80E30002B01D0022200E00022FE
:101DA0009DF80F3011461846FFF704FF65E09DF8D7
:101DB0000E30002B0CD09DF80F3003211846FFF792
:101DC000F9FE9DF80F3001211846FFF76DFF54E032
:101DD0009DF80F3001211846FFF7ECFE4DE09DF80D
:101DE0000E30002B48D19DF80F3004211846FFF724
:101DF000E1FE41E09DF80E30002B06D09DF80F303B
:101E000003211846FFF7D6FE37E09DF80F3000217A
:101E10001846FFF7CFFE9DF80F3000211846FFF758
:101E200043FF002000F0F8FD9DF80F104FF0010275
:101E30004FF00003A1F12006C1F1200003FA01F5E3
:101E400002FA06F6354322FA00F0054302FA01F4DD
:101E50006FEA04086FEA05090A4BD3E9002308EA90
:101E6000020A09EA030B074BC3E900AB002000F0AC
:101E7000E7FD02E000BF00E000BF00BF05B0BDE825
:101E8000F08F00BF1807002000B583B00648074B4D
:101E90001B685B080022194600F038FD019000BF66
:101EA00003B05DF804FB00BFF8060020F406002034
:101EB00000B587B001900023059328E01C4B1A68F9
:101EC000059BDB0013440493049B1B78184603F026
:101ED000FDF803468DF80F30049B5B78012B0CBF97
:101EE00001230023DBB21A469DF80F309A420CBF43
:101EF000012300238DF80E30049B1B789DF80E20E3
:101F000011461846FFF7F2FE059B01330593094B76
:101F10001B781A46059B9342D0DB074BD3E900237D
:101F2000134301D0FFF7B0FF00BF07B05DF804FB1B
:101F3000EC060020F00600201807002000B585B050
:101F400001900B468DF80330019BDBB21846FFF77A
:101F50007DFE0390039B1B78184603F0B7F80346F9
:101F60008DF80B30039B5B78012B0CBF0123002302
:101F7000DBB21A469DF80B309A420CBF01230023B6
:101F80008DF80A309DF80A30002B06D0054BD3E9B6
:101F90000023134301D1FFF777FF00BF05B05DF8C1
:101FA00004FB00BF1807002000B58BB003900B4660
:101FB00001928DF80B30019B092B01D8072367E0B4
:101FC00002F078FF034683F00103DBB2002B09D057
:101FD00002F00CFF0990099B0893089B002B01D08D
:101FE000089B55E02C4A039B13602C4A9DF80B304C
:101FF00013702B4A019B13602022002129480AF00C
:10200000A1FD29494FF000024FF00003C1E9002370
:1020100031E09DF80B30DB00039A13440793032350
:102020008DF8143000238DF815309DF816306FF3BD
:1020300000038DF816309DF816306FF341038DF8CC
:1020400016309DF816306FF382038DF81630079B1B
:102050009B788DF81530079B1B78184605AB134A03
:10206000194602F033FF0990099B0693069B002B4B
:1020700001D0069B0CE09DF80B305A1E8DF80B200A
:10208000002BC6D10A4A00210A4800F00BFC034687
:1020900018460BB05DF804FBEC060020F0060020AB
:1020A000F406002020070020180700203D1F000034
:1020B000B11E0000E8D5000000B583B0114B1B68CD
:1020C000002B04D1104940F2351001F0CDF8002367
:1020D00001930CE00B4B1A68019BDB0013441B7847
:1020E0000121184602F06EFF019B01330193074B5B
:1020F0001B781A46019B9342ECD30023184603B089
:102100005DF804FBEC06002098D50000F0060020E6
:1021100086B003900291019201238DF817309DF84B
:102120001730204A039B13601E4A029B53601D4ACE
:10213000019B9360039B44F20102934212D0039BE4
:1021400044F20202934220D1019B164AD360154B00
:10215000DB681B68134A9361124BDB685B68114AAA
:10216000D36112E0019B0F4A13610E4B1B699B6800
:102170000C4A53610B4B1B691B680A4A9361094B5C
:102180001B695B68074AD36100BF72B600BF00BF1E
:102190009DF81730DBB2002BFAD162B600BF00BF4A
:1021A00006B070474007002000B583B00290009150
:1021B000019244F2010071466A4600F003F803B050
:1021C00000BD00BF30B58BB007900691059272B686
:1021D00000BFFFF779F800BFFEF73AFE0346002B79
:1021E000FAD1079B44F20102934216D0079B44F2B6
:1021F000020293423ED1059B09932C4A2C4BD31AE1
:10220000DB081B0443F00100099B5B681A46099B2D
:102210001B682849FEF7DFFD39E0059B0893234A38
:10222000234BD31ADB081B0443F00104089B9D6871
:10223000089B9B68184602F0E7F803461846089B7F
:102240005B681946089B1B68069A029201930091ED
:1022500003462A4618492046FEF7D1FD134A144B7F
:10226000D31ADB081B0443F0010314491846FEF798
:1022700093FD0CE00D4A0E4BD31ADB081B0443F010
:102280000103069A0E491846FEF794FD00BF0D4B58
:102290001B6803F00103002B00D000BE059A0699CD
:1022A0000798FFF735FF00BF0BB030BDB4D2000078
:1022B0008CD20000ECD5000008D6000030D600001B
:1022C00044D60000F0ED00E02DE9F04383B014485F
:1022D00000F0A1FF034600221C461546114BD3E92E
:1022E000002314EB020845EB0309CDE900890E4BEE
:1022F000D3E90023DDE90001904271EB030307D22B
:10230000DDE9002312F1807643F10007CDE9006793
:10231000DDE900231046194603B0BDE8F08300BF95
:1023200058000020680700207007002088B0019046
:102330000091019B0793009B0693079BD3E902231F
:10234000CDE90423069BD3E90223CDE90223DDE98D
:102350000423DDE90201904271EB03032CBF01234A
:102360000023DBB2184608B070470000F0B585B016
:102370000190019B5B69002B03D12B49B22000F037
:1023800073FF00238DF80F30284B1B78002B45D0AE
:10239000019B002B42D0019B1B7FDBB2002B3DD069
:1023A000FFF792FF019BD3E90223904271EB0303F5
:1023B0002CD3019B1B69002B02D1019B00221A77B1
:1023C000019B5B69019A926910469847019B1B69C2
:1023D000002B23D0019B1B7FDBB2002B1ED0019B67
:1023E000D3E902230199096900200C460546161914
:1023F00043EB0507019BC3E90267019B19460C48A3
:1024000001F05CFF01238DF80F3007E0019B1946B6
:10241000074801F053FF01238DF80F309DF80F306E
:10242000184605B0F0BD00BF68D600006407002064
:10243000B8D60000F0B589B0019000910D23079344
:10244000009B00221A70019BD3E90245FFF73CFF75
:1024500002460B46A61A65EB0307CDE90467DDE9E2
:102460000423012A73F100031BDB049BB3F5350F32
:1024700005D300F0ABFA0246164B134403E0019B70
:10248000D3E90223134603934FF49603039A0021E2
:10249000114800F0B3FD0790079B002B05D10123E5
:1024A00014E000210C4800F081FE079B0D2B07D1A2
:1024B0000198FFF75BFF03461A46009B1A7004E081
:1024C000064940F2051000F0CFFE0023184609B07F
:1024D000F0BD00BFFFFFB4005800002068D6000028
:1024E00000B583B0044801F023FF0190019B18461A
:1024F00003B05DF804FB00BFB8D6000000B583B0A0
:10250000044801F037FF0190019B184603B05DF8C5
:1025100004FB00BFB8D6000000B583B0FFF7E0FFB2
:102520000190019B002B02D0019B00221A77019B96
:10253000002BF3D100BF00BF03B05DF804FB000027
:10254000054BD3E9002312F1807043F10001024BE7
:10255000C3E9000100BF70476807002010B582B0D2
:102560000190124B1B68002B1DD0019800F053FE08
:1025700004460021019800F03FFE0346194620461C
:1025800000F018FA0346B3F5960F04D308494FF448
:102590009D7000F069FE054B1B681846FFF7E6FECC
:1025A000024B00221A6000BF02B010BD600700207D
:1025B00068D6000000B583B00190FFF785FE0246A3
:1025C0000B460349C1E9002300BF03B05DF804FBDB
:1025D0007007002000B585B00190FFF78FFF0390D2
:1025E00000238DF80B30039B002B48D02B4B1B682E
:1025F000002B03D101238DF80B3019E0039BD3E9A5
:102600000201264B1B68D3E90223904271EB0303BE
:102610000ED201238DF80B30204B1B681B7FDBB2E1
:10262000002B05D01D4B1B6819461D4801F046FEC6
:102630009DF80B30002B2AD0FFF752FF03900DF1CD
:102640000A0319460398FFF7F5FE0346002B12D044
:10265000124B1B68002B02D1019800F0DBFB0F4AE4
:10266000039B13609DF80A3083F00103DBB2002B5B
:10267000B3D000BF0EE0094B00221A60ADE7074B54
:102680001B68002B05D1019800F0DAFB01E000BFC8
:1026900000E000BF00BF05B05DF804FB600700204C
:1026A000B8D6000000B587B001902C4A03AB19469C
:1026B000104600F0C4FE059048E0059B1B78022BF5
:1026C0002ED0022B32DC002B02D0012B14D02DE0B7
:1026D000059B5B681B7FDBB283F00103DBB2002B41
:1026E00026D0059B5B6801221A77059B5B6819461B
:1026F0001B4801F0E3FD1BE0059B5A68194B1B6862
:102700009A4203D1174B00221A6012E0059B5B68C6
:102710001946134801F042FE03468DF8133008E0D5
:10272000FFF7FAFE104B01221A7002E000BF00E032
:1027300000BF0A4A03AB1946104600F099FE074A4B
:1027400003AB1946104600F07AFE0590059B002B5E
:10275000B3D100BF00BF07B05DF804FBD007002075
:10276000B8D60000600700206407002000B583B0E1
:102770000190019800F00DFD0346002B01D0FFF7FA
:10278000DFFE0021019800F022FD0346002B02D05D
:102790000198FFF7E3FE0121019800F018FD0346C0
:1027A000002B02D00198FFF705FF0198FFF77AFF91
:1027B0000198FFF70FFF00BF03B05DF804FB0000B6
:1027C00008B5024800F034FD00BF08BD58000020E5
:1027D00000B585B0034600918DF80730114A02AB71
:1027E0001946104600F0FEFD0390039B002B13D00A
:1027F000039B9DF807201A70039B009A5A60094AB0
:1028000002AB1946104600F006FE0346002B01D02D
:10281000FFF7D6FF002300E00423184605B05DF85B
:1028200004FB00BFD007002000B583B0164B1B6827
:102830000093164808235822154900F0A0FD019086
:10284000019B002B01D0019B19E06B46114A1946F0
:10285000114800F061FA0190019B002B01D0019B0F
:102860000DE001210C4800F083FC01230B4A0121FB
:10287000094800F0FBFA0A4B01221A70019B184626
:1028800003B05DF804FB00BFB4D60000D007002001
:10289000780700206D27000058000020FFFF7F0010
:1028A0006407002000B587B003900B4601928DF8B5
:1028B0000B30039B002B04D1134940F23E2000F063
:1028C000D3FC019B002B04D10F4940F23F2000F0C4
:1028D000CBFC019B002B01D1072310E0039B1B685D
:1028E0000593059B019A5A619DF80B30012B0CBF93
:1028F00001230023DBB21A46059B1A610023184608
:1029000007B05DF804FB00BF68D60000F0B587B0E3
:10291000039002910192039B002B04D1164940F2CF
:102920004E2000F0A1FC039B0593059B1B7FDBB2AF
:10293000002B01D000231CE0059B019A9A61FFF750
:10294000C3FC02460B46029900200C4605461619A8
:1029500043EB0507059BC3E90267059B1B69002B39
:1029600002D0059B029A1A6105990020FFF730FFFB
:102970000346184607B0F0BD68D6000000B585B024
:102980000190019B002B04D109494FF4197000F00C
:102990006BFC019B0393039B00221A770399012090
:1029A000FFF716FF0346184605B05DF804FB00BFAD
:1029B00068D6000082B001900091019A009BD31A62
:1029C00023F07F43184602B07047000008B5034863
:1029D00000F021FC0346184608BD00BF5800002047
:1029E00072B600BF034B1B680133024A136000BF7D
:1029F000704700BFE4070020064B1B68013B054AF7
:102A00001360044B1B68002B01D162B600BF00BFEE
:102A1000704700BFE407002000B583B0019000F0CC
:102A200025F80346012B03D00449432000F01CFC89
:102A3000FFF7D6FF00BF03B05DF804FBC4D600006B
:102A400000B583B003468DF8073000F00FF8034659
:102A5000012B03D00449512000F006FCFFF7CCFF06
:102A600000BF03B05DF804FBC4D6000084B0EFF3F0
:102A700005830193019BC3F308030393039B002B7E
:102A80000DD1EFF314830093009B0293029B03F09C
:102A90000103002B0CBF01230023DBB200E0012364
:102AA000184604B07047000082B003468DF8073026
:102AB0009DF90730002B0CDB9DF8073003F01F0257
:102AC00005499DF907305B09012000FA02F241F83F
:102AD000232000BF02B0704700E100E082B003464F
:102AE0008DF807309DF90730002B0DDB9DF807307E
:102AF00003F01F0206499DF907305B09012000FA27
:102B000002F2403341F8232000BF02B0704700BFFB
:102B100000E100E082B0034600918DF807309DF996
:102B20000730002B0ADB009BDAB20C499DF9073015
:102B30005201D2B20B4483F800230BE0009BDAB2BF
:102B400007499DF8073003F00F03043B5201D2B24E
:102B50000B441A7600BF02B0704700BF00E100E0EE
:102B600000ED00E000B583B003460A468DF807305B
:102B700013468DF806309DF80630072B03D9084917
:102B80006B2000F071FB9DF806209DF9073011467F
:102B90001846FFF7BFFF00BF03B05DF804FB00BF9E
:102BA00018D7000000B583B003468DF807309DF9B3
:102BB00007301846FFF778FF00BF03B05DF804FB4D
:102BC00000B585B00190019B002B0AD0074B43F064
:102BD00001030393019B9B010293039B0298984777
:102BE00000E000BF05B05DF804FB00BF20D8000086
:102BF00084B0039002910192039B029A02F5A8729D
:102C0000019943F8221000BF04B0704782B00190D0
:102C10000091019B009A02F5A87253F822301846E1
:102C200002B0704782B001900091019B009AC3F8F6
:102C3000042300BF02B0704782B001900091019B55
:102C4000009AC3F8082300BF02B0704782B0019019
:102C50000B46ADF80230BDF80230019A13441B68F0
:102C6000184602B0704784B001900B46ADF80230B0
:102C7000BDF80230019A134400221A60BDF80230F8
:102C8000019A13441B680393039B00BF04B0704771
:102C900082B00190019BD3F80435184602B070470A
:102CA00000B583B001900091009BB3F5805F04D321
:102CB00006494FF4BE7000F0D7FA019B009AC3F8A2
:102CC000082500BF03B05DF804FB00BF50D700002B
:102CD00082B001900B468DF803309DF80320019BD4
:102CE00013441A460123136000BF02B0704782B03C
:102CF00001900091019B009AC3F8442300BF02B0E9
:102D0000704782B001900091019B009AC3F848235C
:102D100000BF02B07047000000B587B00390029179
:102D20000192039B002B03D13349552000F09CFAFC
:102D3000029B002B03D13049562000F095FA019BED
:102D4000002B03D12C49572000F08EFA039B5B79AE
:102D500019462A4A019B42F82130039B5B79284A95
:102D6000DB0013441B79002B0ED008230593254A62
:102D7000254BD31ADB081B0443F0020323491846F2
:102D8000FEF70AF8059B32E0039B1A68029B1B883A
:102D900019461046FFF784FF039B93F90420029B1A
:102DA0009B7819461046FFF7DDFE039B93F904302C
:102DB0001846FFF7F7FE039B5B79114ADB001344CB
:102DC00001221A71039B5B7919460D4A039B42F855
:102DD0003130002305930B4A0B4BD31ADB081B043D
:102DE00043F003030A491846FDF7D6FF059B184632
:102DF00007B05DF804FB00BF84D70000E80700209F
:102E0000EC070020C4D200008CD20000D0D7000014
:102E1000F4D7000000B583B00190019B002B03D1D3
:102E20000649872000F020FA019B1B680021184604
:102E3000FFF74EFF00BF03B05DF804FB84D700002E
:102E400000B583B00190019B002B03D106498D2072
:102E500000F00AFA019B1B6804211846FFF738FFAF
:102E600000BF03B05DF804FB84D7000000B587B055
:102E70000390029101928DF80330039B002B03D144
:102E80002149962000F0F0F94FF48032029B02FABB
:102E900003F30593029B50339BB29B00ADF81230B5
:102EA000019B23F07F430193039B1B680599184600
:102EB000FFF7C2FE039B1B6805991846FFF721FF29
:102EC000039B1B68BDF8122011461846FFF7CBFE86
:102ED000039B1B68019A02991846FFF789FE039B22
:102EE0001B6805991846FFF702FF9DF80330002B79
:102EF00005D0039B1B6805991846FFF793FE00BF9A
:102F000007B05DF804FB00BF84D7000000B585B0B2
:102F10000390029113468DF80730039B002B03D1D9
:102F20000B49A92000F0A0F9039B1B6802991846E1
:102F3000FFF7DDFE9DF80730002B05D0039B1B68D3
:102F400002991846FFF76EFE00BF05B05DF804FB5E
:102F500084D7000000B583B001900091019B002B45
:102F600003D10A49B32000F07FF9019B1B68009947
:102F70001846FFF7C6FE019B1B6800991846FFF72D
:102F80005BFE00BF03B05DF804FB00BF84D7000008
:102F900000B583B001900B46ADF80230019B002BC9
:102FA00003D10F49BA2000F05FF9019B1B68BDF8FF
:102FB000022011461846FFF749FE0346002B09D0B0
:102FC000019B1B68BDF8022011461846FFF74BFE17
:102FD000012300E00023184603B05DF804FB00BFA6
:102FE00084D7000082B001900091019A009BD31A0F
:102FF00023F07F43184602B07047000000B58BB045
:103000000390029101920093039B002B03D1574937
:10301000CD2000F029F94FF48032029B02FA03F32D
:103020000993029B50339BB29B00ADF82230019B69
:1030300023F07F43019309990398FFF78BFF039BCC
:103040001B681846FFF724FE0790039B1B68029934
:103050001846FFF7DBFD0690039B1B68079A029951
:103060001846FFF7C5FD039B1B68BDF822201146DB
:103070001846FFF7F8FD07990698FFF7B3FF0346D8
:10308000012B0AD11020FFF79BFD039B1B68BDF8A5
:10309000222011461846FFF7E6FD039B1B681846E1
:1030A000FFF7F6FD079007990198FFF79BFF059042
:1030B000039B1B6809991846FFF719FE059B012B16
:1030C00015D1039B1868019B01331A460299FFF73B
:1030D0008FFD1020FFF774FD039B1B681846FFF758
:1030E000D7FD0246079B934235D00D2339E0039B61
:1030F0001B68019A02991846FFF77AFD039B1B682B
:103100001846FFF7C5FD0790019B013B079918463C
:10311000FFF768FF0590009BC3F1FF1303F57F43A2
:10312000059A9A4201D90D231BE0059B002B12D171
:10313000039B1868019B01331A460299FFF758FD5B
:10314000039B1B681846FFF7A3FD0246079B9342AB
:1031500001D00D2305E0012209990398FFF7D6FE5F
:10316000002318460BB05DF804FB00BF84D70000B5
:1031700000B583B001900B468DF803309DF8033005
:103180001A4602210198FFF7C1FE00BF03B05DF8A7
:1031900004FB00B583B001904FF482710198FFF7F2
:1031A000F7FE0346184603B05DF804FB00B583B094
:1031B000019000914FF48032009B02FA03F319460C
:1031C0000198FFF7C7FE00BF03B05DF804FB00B530
:1031D00085B001900091009B50339BB29B00ADF8ED
:1031E0000E30BDF80E3019460198FFF7D1FE0346A8
:1031F000184605B05DF804FB00B583B0019000915E
:10320000019B1B6800991846FFF700FD034618460E
:1032100003B05DF804FB00B583B00190019B1B680F
:103220001846FFF735FD0346184603B05DF804FB6A
:1032300000B583B00190019B93F904301846FFF765
:103240004DFC00BF03B05DF804FB000008B5044B63
:103250001B68044A12681046984700BF08BD00BFAB
:10326000E8070020EC07002000B585B00346009178
:10327000ADF80630BDF806300293009B039302AB15
:103280001A46002144F20200FEF79CFF00BF05B081
:103290005DF804FB86B001900091019B53E8011F8B
:1032A0008AB2D88902449889824228BF121A1889A2
:1032B000824202BFBFF32F8F002307E0C2EA010260
:1032C00043E801200028E9D14FF001038DF80F30C9
:1032D000059002910492029A009B1A609DF80F30AB
:1032E000DBB2184606B0704784B00190019951E8EE
:1032F000013FC3EA034341E80132002AF7D10392B8
:10330000029300BF04B0704786B001900091019B0A
:1033100053E8021F1FFAA1F2D888824202BFBFF30E
:103320002F8F00230DE0D88902449889824228BF5C
:10333000121AC1EA024243E802200028E8D14FF005
:1033400001038DF80F30059002910492029A009BC0
:103350001A609DF80F30DBB2184606B0704784B093
:103360000190019951E8023FC3EA234341E8023248
:10337000002AF7D10392029300BF04B0704784B0D3
:103380000390029111461A460B46ADF806301346DB
:10339000ADF80430029B002B01D10E231FE0BDF8D5
:1033A0000630BDF80420B3FBF2F101FB02F29B1AD8
:1033B0009BB2002B01D0092311E0039B029A1A60F3
:1033C000039B00225A60039B00229A60039BBDF876
:1033D00006209A81039BBDF80420DA810023184659
:1033E00004B0704700B585B001900091009B19466C
:1033F0000198FFF74FFF0346002B07D0019B1B6886
:10340000009A128813440393039B00E0002318469C
:1034100005B05DF804FB00B583B001900091009BFE
:103420001A88009B5B889A4204D10198FFF75CFFE1
:10343000012300E00023184603B05DF804FB00B54B
:1034400085B001900091009B19460198FFF75CFF41
:103450000346002B07D0019B1B68009A5288134437
:103460000393039B00E00023184605B05DF804FBBE
:1034700000B583B001900091009B1A88009B5B8887
:103480009A4204D10198FFF76AFF012300E000236C
:10349000184603B05DF804FB10B487B001900091AA
:1034A000019B009A53E8004F104643E8000191F059
:1034B000000FF7D1059404900391059B184607B0BF
:1034C0005DF8044B704710B487B001900091019BE8
:1034D000009A53E8004F44EA020043E8000191F0EB
:1034E000000FF6D1059404900391049B184607B091
:1034F0005DF8044B704710B487B001900091019BB8
:10350000009A53E8004F04EA020043E8000191F0FA
:10351000000FF6D1059404900391059B184607B05F
:103520005DF8044B704710B487B001900091019B87
:10353000009A53E8004F04EB020043E8000191F0C9
:10354000000FF6D1059404900391049B184607B030
:103550005DF8044B704710B487B001900091019B57
:10356000009A53E8004FA4EB020043E8000191F0F9
:10357000000FF6D1059404900391049B184607B000
:103580005DF8044B704700B583B0019001210198AC
:10359000FFF799FF0346184603B05DF804FB00B53A
:1035A00083B0019000210198FFF7A5FF034618465C
:1035B00003B05DF804FB000000B583B001900B463A
:1035C0008DF80330019B002B03D10849E820FFF759
:1035D0004BFE019BDA689DF803300199098A01FBD3
:1035E00003F31344184603B05DF804FB28D8000029
:1035F00000B583B001900091019B002B03D10849D5
:10360000F520FFF731FE009B019AD2689B1A019AC0
:10361000128AB3FBF2F3DBB2184603B05DF804FB89
:1036200028D8000000B585B00190019B002B01D186
:103630000E234CE0019B1B68002B03D12649FF2081
:10364000FFF712FE019B5B68002B04D122494FF467
:103650008070FFF709FE019B9B68002B04D11E4977
:1036600040F20110FFF700FE019BDB68002B04D144
:1036700019494FF48170FFF7F7FD019B1B8A002B5E
:1036800004D1154940F20310FFF7EEFD019B9A6843
:10369000019B5B68D31A8DF80F30019B1B68019A60
:1036A00052681A6007E0019B1A681368591C116080
:1036B0009DF80F201A709DF80F305A1E8DF80F20BC
:1036C000002BF0D1019B1B6800221A7100231846C1
:1036D00005B05DF804FB00BF28D8000000B585B038
:1036E0000190019B002B04D11C494FF49270FFF70D
:1036F000BBFD002303930020FFF78EF9019B1B689D
:103700001A68019B5B689A421FD9019B1B681A6863
:10371000013A1A601B681B7819460198FFF74CFFA5
:103720000390019B9A68019B1B681B68D31A8DF854
:103730000B30019B1B681B799DF80B209A4204D922
:10374000019B1B689DF80B201A710020FFF778F988
:10375000039B184605B05DF804FB00BF28D80000A5
:1037600010B584B001900091019B002B04D1114948
:1037700040F24710FFF778FD009B002B04D10D4964
:103780004FF4A470FFF770FD009B03930020FFF738
:1037900043F9019B1B681C68621C1A60039901981D
:1037A000FFF726FF034623700020FFF749F900BF0B
:1037B00004B010BD28D8000000B583B00190019B73
:1037C000002B03D10C493120FFF74EFD019B9B6874
:1037D000002B0CD0019B5B69019A1069019A11685A
:1037E000019A92689847019B00229A6000E000BF0E
:1037F00003B05DF804FB00BF78D800000EB400B53C
:1038000084B00190019B002B03D118494220FFF79F
:103810002BFD019B5B69002B03D114494320FFF76B
:1038200023FD019B1B68002B03D110494420FFF7A7
:103830001BFD019B5B68002B03D10C494520FFF762
:1038400013FD059B002B0AD00023039306AB0393C3
:1038500003AB1A460599019800F0B8F900E000BFE3
:1038600004B05DF804EB03B0704700BF78D80000E7
:1038700000B583B001900B468DF803309DF80330FE
:103880000A2B03D10D210198FFF7F2FF019B1A6863
:10389000019B9B68581C0199886013449DF8032084
:1038A0001A70019B9A68019B5B689A4202D3019847
:1038B000FFF782FF00BF03B05DF804FB00B587B0DF
:1038C000039002910192009300230593009B03F063
:1038D0000103002B24D00BE0029B01330293059BD4
:1038E000013305939DF8133019460398FFF7C0FF85
:1038F000029B1B788DF813309DF81330002BEBD111
:1039000006E0019B013B019320210398FFF7B0FFE4
:10391000019A059B9A422ED9019B002BF1D12AE0F6
:10392000029B002B0BD0029809F061F9059006E08C
:10393000019B013B019320210398FFF799FF019A16
:10394000059B9A420FD9019B002BF1D10BE0029B02
:1039500001330293059B013305939DF813301946FB
:103960000398FFF785FF029B1B788DF813309DF8B5
:103970001330002BEBD100BF07B05DF804FB000053
:1039800000B589B00390029101920093029B0793C6
:103990000123069307E0079A019BB2FBF3F3079319
:1039A000069B01330693079A019B9A42F3D2009A31
:1039B000069B9A4201D9009B06930B9B03F00103DF
:1039C000002B22D10A9B002B1FD00B9B03F002037C
:1039D000002B06D0009B002B03D130238DF817302D
:1039E00002E020238DF8173008E00A9B013B0A9380
:1039F0009DF8173019460398FFF73AFF0A9B002BF2
:103A000003D0069A0A9B9A42EFD301230793009BA7
:103A1000012B03D9009B013B009309E0029A079B0D
:103A2000B2FBF3F30493049A019B9A4200D205E09F
:103A3000079B019A02FB03F30793E8E7029A079BAF
:103A4000B2FBF3F30493049B079A02FB03F3029A7D
:103A5000D31A0293154A049B13441B781946039802
:103A6000FFF706FF079A019BB2FBF3F30793079B4F
:103A7000002BE3D10B9B03F00103002B11D00A9B19
:103A8000002B0ED006E00A9B013B0A9320210398ED
:103A9000FFF7EEFE0A9B002B03D0069A0A9B9A4280
:103AA000F1D300BF09B05DF804FB00BF08D90000E6
:103AB00000B589B00590049103920293049B002BFA
:103AC000B8BF5B4206930123079307E0039B069A66
:103AD00092FBF3F30693079B01330793039B069A2C
:103AE0009A42F3DA029A079B9A4201D9029B079302
:103AF0000A9B002B0AD0049B002B04DB0B9B03F0DA
:103B00000403002B02D00A9B013B0A930B9B03F09A
:103B10000203002B02D0029B002B16D00B9B03F05C
:103B20000103002B11D10A9B002B0ED006E00A9B4B
:103B3000013B0A9320210598FFF79AFE0A9B002B70
:103B400003D0079A0A9B9A42F1D3049B002B07DA11
:103B5000049B5B4204932D210598FFF789FE08E042
:103B60000B9B03F00403002B03D02B210598FFF7D8
:103B70007FFE0B9B03F00203002B19D00B9B03F07D
:103B80000103002B14D1029B002B11D10A9B002BA7
:103B90000ED006E00A9B013B0A9330210598FFF7FF
:103BA00067FE0A9B002B03D0079A0A9B9A42F1D327
:103BB00004990B9B01930A9B0093029B039A05981F
:103BC000FFF7DEFE00BF09B05DF804FB00B58FB063
:103BD000059004910392059B002B04D1AD4940F25E
:103BE0005220FFF741FB059B5B69002B04D1A949DB
:103BF0004FF41570FFF738FB059B1B68002B04D1B1
:103C0000A44940F25520FFF72FFB059B5B68002B72
:103C100004D1A04940F25620FFF726FB049B002B5D
:103C200000F09381049B1B788DF83730049B01339F
:103C300004939DF83730002B00F07E819DF83730DB
:103C4000252B40F06D8100230A9301230C93049BE4
:103C50001B788DF837309DF83730302B0DD0302B56
:103C60001BDC2B2B11D02D2B17D10A9B43F001030A
:103C70000A93049B0133049312E00A9B43F002036E
:103C80000A93049B013304930AE00A9B43F0040364
:103C90000A93049B0133049302E000230C9300BFBA
:103CA0000C9B002BD3D1002309939DF837302A2B8E
:103CB0000CD1039B1B68191D039A11601B68099A9C
:103CC00013440993049B013304931AE0049B1B786B
:103CD0008DF837309DF837302F2B12D99DF83730BB
:103CE000392B0ED8049B01330493099A13469B0089
:103CF00013445B001A469DF837301344303B099358
:103D0000D3E700230B93049B1B788DF837309DF885
:103D100037302E2B1DD1049B01330493049B1B7859
:103D20008DF837309DF837302F2B12D99DF837306A
:103D3000392B0ED8049B013304930B9A13469B0036
:103D400013445B001A469DF837301344303B0B9305
:103D5000E4E7049B1B788DF837309DF837306C2BE7
:103D600003D09DF83730682B07D1049B01330493AF
:103D7000049B1B788DF83730EFE79DF83730252B03
:103D800000F0C480252BC0F2C680782B00F3C380DE
:103D9000582BC0F2C080583B202B00F2BC8001A2FF
:103DA00052F823F0993E0000173F0000173F000033
:103DB000173F0000173F0000173F0000173F0000AB
:103DC000173F0000173F0000173F0000173F00009B
:103DD000293E00004B3E0000173F0000173F000047
:103DE000173F0000173F00004B3E0000173F000048
:103DF000173F0000173F0000173F0000173F00006B
:103E0000173F0000D93E0000173F0000173F000099
:103E1000BD3E0000173F00006F3E0000173F00004E
:103E2000173F0000993E0000039B1B68191D039A71
:103E300011601B680C930C9B8DF81F309DF81F3090
:103E400019460598FFF714FD66E0039B1B68191DD2
:103E5000039A11601B680C930A9B0193099B0093C2
:103E60000B9B0A220C990598FFF722FE54E0039B56
:103E70001B68191D039A11601B680C930C990A9B0F
:103E80000193099B00930B9B0A220598FFF778FD8D
:103E900042E000BFBCD80000039B1B68191D039AB9
:103EA00011601B680C930C990A9B0193099B00936A
:103EB0000B9B10220598FFF763FD2DE0039B1B6809
:103EC000191D039A11601B6808930A9B099A0899A7
:103ED0000598FFF7F3FC1FE0039B1B68191D039A6D
:103EE00011601B680C9330210598FFF7C1FC782105
:103EF0000598FFF7BDFC0C9900230193082300935C
:103F0000082310220598FFF73BFD05E025210598C1
:103F1000FFF7AEFC00E000BF049B0133049305E013
:103F20009DF8373019460598FFF7A2FC049B1B78D3
:103F3000002B7FF477AE00E000BF059B1B7B002BBE
:103F400004D00598FFF738FC00E000BF0FB05DF823
:103F500004FB00BF00B583B001900198FFF762FB3E
:103F60000346184603B05DF804FB00B58BB0019022
:103F70000091019B1B8A043B0793009A079B134403
:103F8000DA1C079BB2FBF3F38DF81B300198FFF7A7
:103F9000A5FB0590059B002B01D1002338E0059B74
:103FA00000221A71059B01225A71079B9AB2059B48
:103FB000DA80059B09939DF81B30013B0493099B14
:103FC000019A1A60002308931DE00198FFF786FB11
:103FD0000390039B002B0ED0059B5B790133DAB273
:103FE000059B5A71099B039A1A60039B019A1A60F8
:103FF000039B099304E0059800F00EF8002307E006
:10400000089B01330893089A049B9A42DDD3059BD1
:1040100018460BB05DF804FB00B58BB00190019B16
:104020000793079B5B798DF81B30019B08939DF8E4
:104030001B30013B05930023099305E0089B1B6897
:104040000893099B01330993099A059B9A42F5D37A
:10405000089B1B680493019B0893002309930BE0C2
:10406000089B1B68039308990498FFF779FB039B4F
:104070000893099B013309939DF81B30099A9A42D2
:10408000EED300BF00BF0BB05DF804FB00B585B0F8
:104090000190019B0393039B043301211846FFF712
:1040A00042FA00BF05B05DF804FB00B587B001908F
:1040B000019B0593059B043301211846FFF74BFA3A
:1040C0000346039303AB0493049B1B78002B02D19C
:1040D0000198FFF7A1FF00BF07B05DF804FB0000E7
:1040E00000B591B00390029101920093039B002BC5
:1040F00003D14349B620FFF7B7F8039B0993039B0D
:104100000F93099BDB881A46099B5B7902FB03F33B
:10411000043B0893009A089B9A4203D33849C42071
:10412000FFF7A2F8099BDB880793009B1A1D079BEA
:10413000B2FBF3F30E93009B0433079AB3FBF2F246
:10414000079901FB02F29B1A0D93019B1A68009BD1
:104150001344089A9A4203D2089A009BD31A01E0AA
:10416000019B1B680C93019B0C9A1A6005E00F9B46
:104170001B680F930E9B013B0E930E9B002BF6D1F9
:1041800000230B93079A0D9BD31A0A930A9A0C9B50
:10419000934228BF13460A932AE0029A0B9B1344CA
:1041A00006930F9A0D9B1344043305939DF84830F2
:1041B000002B05D00A9A0599069808F09AFC04E0AD
:1041C0000A9A0699059808F094FC00230D930F9B1A
:1041D0001B680F930C9A0A9BD31A0C930B9A0A9B99
:1041E00013440B93079A0C9B934228BF13460A93E0
:1041F0000C9B002BD1D100BF00BF11B05DF804FBB8
:1042000018D9000000B589B005900491039202937B
:10421000039B079307AA00230093029B0499059828
:10422000FFF75EFF079B039A9A4203D00349F620EB
:10423000FFF71AF800BF09B05DF804FB18D90000B9
:1042400000B589B00590049103920293039B0793F4
:1042500007AA01230093029B04990598FFF740FFEA
:10426000079B039A9A4204D004494FF48070FEF7EA
:10427000FBFF00BF09B05DF804FB00BF18D90000C8
:1042800082B00190019B9B6800229A60019B9B6811
:1042900000221A61019B9B6800225A61019B9B6866
:1042A0000022DA60019B9B6800225A60019B9B6898
:1042B00000221A6000BF02B07047000000B585B050
:1042C00001900091019B002B03D118493A20FEF781
:1042D000CBFF009B002B03D114493B20FEF7C4FF0A
:1042E000019B5B6803930FE0019B9B68039A126834
:1042F000009910469847034683F00103DBB2002B78
:1043000007D1039B1B680393039B1B68002BEBD116
:1043100000E000BF039B1A68009B1A60039B009A91
:104320001A6000BF05B05DF804FB00BF74D900003F
:1043300000B585B00190019B002B03D10C495120A1
:10434000FEF792FF019B5B681B680393019B5B6810
:104350001B68002B06D0019B5B681A68019B5B6899
:1043600012681A60039B184605B05DF804FB00BF95
:1043700074D9000000B583B00190019B002B03D1DC
:1043800005495D20FEF770FF019B5B681B681846BE
:1043900003B05DF804FB00BF74D9000000B585B020
:1043A00001900091019B002B03D116496920FEF773
:1043B0005BFF009B002B03D112496A20FEF754FFDC
:1043C00000238DF80B30019B5B6803930FE0039B88
:1043D0001B68009A9A4207D1009B1A68039B1A60D7
:1043E00001238DF80B3006E0039B1B680393039BAE
:1043F0001B68002BEBD19DF80B30184605B05DF81B
:1044000004FB00BF74D9000000B585B0019001988D
:1044100000F00EF80390039B002B01D0039B00E0FB
:10442000024B184605B05DF804FB00BFC8D9000078
:1044300086B00190164B0593164B04931FE0049A27
:10444000059BD31ADB10DA0F13445B10DB00059ACF
:1044500013440393039B1B680293029A019B9A42A5
:1044600002D9039B04930AE0029A019B9A4203D269
:10447000039B0833059302E0039B5B6804E0059A05
:10448000049B9A42DBD30023184606B0704700BF56
:104490009CDD0000B4DE000000B589B00190009101
:1044A000009B0793019B1B788DF80C30019B5B6888
:1044B0000493019B9B68DBB28DF81430019BDB6891
:1044C0000693074A079B52F823300649079A51F88A
:1044D000221003AA1046984700BF09B05DF804FBFC
:1044E000F4070020FC07002000B589B0019000917E
:1044F000009B0793019B1B788DF80C30019B5B6838
:104500000493019B9B68DBB28DF81430019BDB6840
:104510000693074A079B52F823300649079A51F839
:10452000221003AA1046984700BF09B05DF804FBAB
:10453000F4070020FC07002030B58FB003900291F3
:104540000192039B1B780C932C490C9B019A41F818
:104550002320029B1A692A490C9B41F823200C9BBB
:10456000012B07D1029B5B7F002B03D125497620CD
:10457000FEF77AFE029B5B7F1946234A0C9B13448D
:104580000A461A70029B04AC1D460FCD0FC495E875
:104590000F0084E80F000C9B089300230D93039BEE
:1045A0001B781A46184B9B5C002B0DD0039B181DE3
:1045B000019B002B01D0154A00E0002204AB1946F4
:1045C00002F02AF90D9014E0039B1B781A460E4B5B
:1045D0009B5C002B0DD1039B03F10C00019B002B76
:1045E00001D00B4A00E0002204AB194601F098FA12
:1045F0000D900D9B18460FB030BD00BFF407002092
:10460000FC070020B4DE00000408002099440000EC
:10461000E944000082B003468DF807309DF9073069
:10462000002B0CDB9DF8073003F01F0205499DF9B4
:1046300007305B09012000FA02F241F8232000BF95
:1046400002B0704700E100E082B0034600918DF8AF
:1046500007309DF90730002B0ADB009BDAB20C49CA
:104660009DF907305201D2B20B4483F800230BE0CE
:10467000009BDAB207499DF8073003F00F03043BB3
:104680005201D2B20B441A7600BF02B0704700BF8D
:1046900000E100E000ED00E082B00190019B1B0B07
:1046A0005BB2184602B0704700B583B003460A46B5
:1046B0008DF8073013468DF806309DF80630072B2D
:1046C00003D908496B20FEF7CFFD9DF806209DF920
:1046D000073011461846FFF7B7FF00BF03B05DF87B
:1046E00004FB00BF00DF000000B583B003468DF877
:1046F00007309DF907301846FFF78CFF00BF03B065
:104700005DF804FB00B583B00346ADF80630BDF894
:104710000630184600F026F803461B68012B0CBF34
:1047200001230023DBB2184603B05DF804FB00B59B
:1047300085B00346ADF80630BDF80630184600F0E7
:1047400011F803461A4600231360BDF806301846D8
:1047500000F008F803461B680393039B00BF05B0F5
:104760005DF804FB82B00346ADF80630BDF80630B4
:1047700003F1804303F5C043184602B070470000C0
:1047800082B00190034A019BC2F8043300BF02B01B
:10479000704700BF0060004082B00190034BD3F827
:1047A0000423019B1340184602B07047006000408C
:1047B00082B00190084A019B03F5A27352F823309E
:1047C000054943F00102019B03F5A27341F8232040
:1047D00000BF02B0704700BF0060004084B003908B
:1047E000029113468DF80730144A039B03F5A27318
:1047F00052F82330114923F44F3323F44073039AC2
:1048000002F5A27241F822300C4A039B03F5A27311
:1048100052F82320029B1B0203F47C519DF80730C1
:104820001B0403F440330B4304491A43039B03F571
:10483000A27341F8232000BF04B07047006000401D
:1048400082B00190054A019B03F5A27352F8233010
:104850001B0A03F03F03184602B070470060004097
:1048600082B00190064A019B03F5A27352F82330EF
:104870001B0C03F00303DBB2184602B0704700BF05
:104880000060004000B583B00190019B1B68184692
:1048900000F02AF90346002B04D10B494FF4F670BF
:1048A000FEF7E2FC019B1B681F2B02D84FF0A043D0
:1048B00006E0019B1B6803F01F02019B1A60034B7B
:1048C000184603B05DF804FB38DF00000003005019
:1048D00000B585B00190084611461A4603468DF88A
:1048E00003300B468DF8023013468DF8013001ABD2
:1048F0001846FFF7C7FF03909DF803209DF802308C
:104900005B001A439DF801309B001A439DF8183054
:104910001B0242EA03019DF81C301B04019A194353
:10492000039B02F5E07243F8221000BF05B05DF86A
:1049300004FB00B585B003900B468DF80B309DF855
:104940000B300022019200220092002200210398E5
:10495000FFF7BEFF00BF05B05DF804FB00B585B0F2
:10496000019001AB1846FFF78DFF0390019A039B5E
:1049700002F5E07253F8223023F002030293019A09
:10498000039B02F5E072029943F8221000BF05B0C4
:104990005DF804FB00B585B001900B468DF803303F
:1049A00001AB1846FFF76EFF0390019A039B02F5D7
:1049B000E07253F82230019A23F44031039B02F550
:1049C000E07243F82210019A039B02F5E07253F85B
:1049D00022309DF8032012041146019A1943039BCB
:1049E00002F5E07243F8221000BF05B05DF804FB49
:1049F00000B585B0019001AB1846FFF743FF039067
:104A0000039800F020F80246019B22FA03F303F01A
:104A10000103184605B05DF804FB00B585B00190B0
:104A200001AB1846FFF72EFF0390019A039B02F596
:104A3000E07253F822301B0C03F00303DBB218467C
:104A400005B05DF804FB82B00190019BD3F81035EE
:104A5000184602B07047000088B00390029101929E
:104A6000164A05AB92E8030083E80300039B079313
:104A700019E0079B9B0008AA134453F80C3CD3F899
:104A80002025019B1A60079B9B0008AA134453F83A
:104A90000C3C019A1268C3F82025019B0433019352
:104AA000079B01330793039A029B1344079A9A4288
:104AB000DFD300BF00BF08B0704700BF6CDF00004D
:104AC00000B585B0019001AB1846FFF7DBFE0390FF
:104AD000019B012202FA03F31A46039BC3F8202527
:104AE00000BF05B05DF804FB84B00190019B5B0939
:104AF000029300230393029B002B03D0029B012B04
:104B000004D007E04FF0FF33039303E04FF6FF7349
:104B1000039300BF019B03F01F030193039A019BC2
:104B200022FA03F303F00103002B14BF0123002337
:104B3000DBB2184604B0704784B001900091009B2E
:104B40000393019BDB080293019B03F0070301938E
:104B50000122019B02FA03F30399029A0A44127894
:104B60001340184604B0704784B001900091009B38
:104B70000393019BDB080293019B03F0070301935E
:104B8000039A029B13441B785AB20121019B01FA3C
:104B900003F35BB2134359B2039A029B1344CAB2A4
:104BA0001A7000BF04B0704782B001900C4A019B9C
:104BB0001344303393F90030002B09DB084A019B82
:104BC0001344303393F90030072B01DC012300E05C
:104BD000002303F00103DBB2184602B0704700BFA8
:104BE0000808002082B00190064A019B134430332C
:104BF00093F90030072BCCBF01230023DBB218460A
:104C000002B070470808002082B00190064A019B5C
:104C10001344303393F90030DB43DBB2DB09DBB202
:104C2000184602B0704700BF0808002084B0039007
:104C3000029101928DF80330029B59B20E4A039BF8
:104C4000134430330A461A700B49029B019A41F80B
:104C500023209DF8033083F00103DBB2002B08D042
:104C6000029B083B039A51B2034A13440A4683F855
:104C7000602000BF04B070470808002082B0019097
:104C8000044A019B13443033FF221A7000BF02B064
:104C9000704700BF0808002000B583B001900449A8
:104CA0000198FFF761FF00BF03B05DF804FB00BF90
:104CB0006C08002082B00190044A019B13443033F9
:104CC00093F90030184602B0704700BF0808002072
:104CD00082B00190034A019B52F82330184602B07B
:104CE000704700BF0808002084B00190074A019B6C
:104CF0001344603393F900308DF80F309DF80F3076
:104D000023F0C003184604B0704700BF0808002015
:104D100084B00190074A019B1344603393F900303B
:104D20008DF80F309DF80F309B09DBB2184604B0A8
:104D3000704700BF0808002000B589B003900291B9
:104D400013468DF80730FF238DF81F309DF807308C
:104D5000002B01D0002300E0082305939DF80730C5
:104D6000002B01D0082300E00C230493059B06933D
:104D700014E00F4A069B52F82330B3F1FF3F0AD1EB
:104D80009DF80730029A06990398FFF74FFF069B9C
:104D90008DF81F3006E0069B01330693069A049BAC
:104DA0009A42E6D39DF91F30184609B05DF804FB1E
:104DB0000808002082B003468DF807309DF80730C0
:104DC000094A4FF0FF3142F823109DF80730072BB6
:104DD00007D99DF80730083B034A1344FF2283F8A4
:104DE000602000BF02B070470808002000B583B003
:104DF0002D4B93F86A30002B03D008230093009BBF
:104E00004EE000238DF8073011E09DF8073018467A
:104E1000FFF76AFE0346002B04D09DF807301846C2
:104E2000FFF72CFF9DF8073001338DF807309DF810
:104E300007302F2BE9D900238DF8073009E09DF8C2
:104E400007301846FFF7B6FF9DF8073001338DF89D
:104E500007309DF807300B2BF1D9062200211348AB
:104E600007F070FE1248FFF717FC034606211846AC
:104E7000FFF71AFC0E48FFF70FFC03461846FFF732
:104E800033FC4FF4BE70FFF752FC4FF00040FFF7C9
:104E900077FC054B012283F86A2000230093009BD6
:104EA000184603B05DF804FB080800206C080020D9
:104EB00000600040044B93F86A30002B14BF0123BC
:104EC0000023DBB2184670470808002000B587B001
:104ED0000390029101920398FFF706FE0346002B10
:104EE00004D136494FF40C70FEF7BEF90023059348
:104EF0000398FFF789FE0346002B02D00823059391
:104F000057E0029B9B78C3F34003DBB21A4601993A
:104F10000398FFF711FF03468DF813309DF9133006
:104F2000B3F1FF3F43D0029B9B78C3F38003DBB216
:104F300083F00103DBB2002B13D0029B9B7803F0BC
:104F40000103DBB2002B03D00398FFF707FD05E058
:104F5000029B5B7819460398FFF7EBFC0398FFF779
:104F60009BFE029B9B7803F00203DBB2002B08D070
:104F70009DF91300029B1B781A460399FFF72EFC3C
:104F800017E09DF91330083B0D4A134493F9601064
:104F9000029B1B789B015AB29DF91330083B0A43D0
:104FA00051B2074A13440A4683F8602001E0042303
:104FB0000593059B184607B05DF804FB7CDF0000F5
:104FC0000808002000B589B001900B468DF8033029
:104FD0000198FFF789FD0346002B04D13A494FF4AD
:104FE0001870FEF741F90198FFF70EFE0346002BFB
:104FF00004D1354940F26120FEF736F90198FFF7F8
:10500000F1FD0346002B2AD00198FFF753FE03461B
:10501000083B1846FFF77CFE03468DF80F309DF8DD
:105020000F30032B0BD10198FFF7E2FC0346002B56
:1050300001D0032300E002238DF81F3008E09DF823
:105040000F30012B01D1022300E003238DF81F3024
:105050009DF81F3019460198FFF79CFC30E001983D
:10506000FFF7A2FD0346002B2AD00198FFF722FE8E
:1050700003460693069B9BB240339BB29B00ADF860
:105080001630069B1846FFF793FBBDF816301846FE
:10509000FFF74DFB9DF80330002B11D00198FFF76F
:1050A00009FE03461846FFF713FE0490049B002BED
:1050B00006D00122069B02FA03F31846FFF760FBB5
:1050C00000BF09B05DF804FB7CDF000000B583B0D1
:1050D00001900198FFF708FD0346002B04D1094910
:1050E00040F2AF20FEF7C0F80198FFF781FC0346BD
:1050F000002B14BF01230023DBB2184603B05DF878
:1051000004FB00BF7CDF000000B585B00190019A70
:1051100002210020FFF7A0FC002303930BE0039B78
:105120009B00019A13441B68002B01D0012306E069
:10513000039B01330393039B012BF0D900231846F3
:1051400005B05DF804FB000000B587B001900023B6
:1051500005935BE0344A059B1344603393F90030B8
:10516000B3F1FF3F4ED00598FFF7BEFD04900199C3
:105170000498FFF7E1FC0346002B44D00598FFF7A5
:10518000C7FD03468DF80F300498FFF746FC034631
:105190008DF80E309DF80E30022B01D1032300E074
:1051A00002238DF80D309DF80D3019460498FFF755
:1051B000F1FB0498FFF784FC0498FFF77BFD03469E
:1051C0001846FFF785FD0290029B002B1BD09DF82F
:1051D0000F30032B0FD09DF80E30022B03D19DF81A
:1051E0000F30012B07D09DF80E30032B0BD19DF80B
:1051F0000F30022B07D19DF80F20029B1146049817
:10520000984700E000BF059B01330593059B032BE6
:10521000A0D90198FFF778FF0346002B97D100BF74
:1052200000BF07B05DF804FB0808002000B58BB094
:105230000023089301AB00221A605A604FF4807378
:10524000ADF81A30012309930023079321E0BDF83C
:105250001A301846FFF756FA0346002B0ED009986D
:10526000FFF79AFA0346002B08D0BDF81A3018460B
:10527000FFF75DFA089A099B13430893099B5B00AB
:105280000993BDF81A300433ADF81A30079B013387
:105290000793079B072BDAD94FF4BE70FFF732FA5A
:1052A0000346002B0DD04FF4BE70FFF740FA089B69
:1052B00043F00043089301AB1A4602210020FFF798
:1052C000CBFB089BDBB2002B29D0012309930023E1
:1052D000079321E0099A089B1340002B16D00798EA
:1052E000FFF7AEFA05900798FFF7BAFA03468DF874
:1052F00013300798FFF7ECFC0390039B002B05D0BD
:105300009DF81320039B114605989847099B5B0065
:105310000993079B01330793079B072BDAD9089B57
:10532000002B03DA01AB1846FFF70EFF00BF0BB0EE
:105330005DF804FB08B5064B1B68002B03D105493B
:105340005120FDF791FF024B1B68984700BF08BD35
:1053500074080020CCDF000082B00190019B044A59
:10536000934201D1034B00E00023184602B070477E
:10537000002000407408002000B587B00190009123
:10538000019B002B03D118497720FDF76DFF019891
:10539000FFF7E2FF0590059B002B1ED000238DF840
:1053A00013300020FDF738FB059B1B79002B03D041
:1053B00001238DF8133005E0059B009A1A60059BC8
:1053C00001221A710020FDF73BFB9DF81330002BE2
:1053D00003D011230393039B02E000230393039B59
:1053E000184607B05DF804FBCCDF000000B585B0BF
:1053F0000190019B002B03D10A499B20FDF734FF4C
:105400000198FFF7A9FF0390039B002B05D0039B96
:1054100000221A60039B00221A7100BF05B05DF8DC
:1054200004FB00BFCCDF000082B003468DF80730DC
:105430009DF90730002B0CDB9DF8073003F01F02AD
:1054400005499DF907305B09012000FA02F241F895
:10545000232000BF02B0704700E100E082B00346A5
:105460008DF807309DF90730002B13DB9DF80730CE
:1054700003F01F0209499DF907305B09012000FA7A
:1054800002F2203341F82320BFF34F8F00BFBFF358
:105490006F8F00BF00BF02B0704700BF00E100E0A7
:1054A00082B0034600918DF807309DF90730002B3C
:1054B0000ADB009BDAB20C499DF907305201D2B2E7
:1054C0000B4483F800230BE0009BDAB207499DF8F8
:1054D000073003F00F03043B5201D2B20B441A769B
:1054E00000BF02B0704700BF00E100E000ED00E047
:1054F00082B00190019B1B0B5BB2184602B0704753
:1055000000B583B003460A468DF8073013468DF880
:1055100006309DF80630072B03D908496B20FDF7AC
:10552000A3FE9DF806209DF9073011461846FFF7A7
:10553000B7FF00BF03B05DF804FB00BF18E0000038
:1055400000B583B003468DF807309DF90730184643
:10555000FFF76AFF00BF03B05DF804FB00B583B03E
:1055600003468DF807309DF907301846FFF776FFA0
:1055700000BF03B05DF804FB84B001900B46ADF8AA
:105580000230BDF80230019A134400221A60BDF8BF
:105590000230019A13441B680393039B00BF04B0BD
:1055A000704782B001900B46ADF80230BDF8023072
:1055B000019A13441B68002B14BF01230023DBB2A4
:1055C000184602B0704782B001900091019B009A8A
:1055D000C3F8042300BF02B0704782B0019000916D
:1055E000019BD3F80423009B1340002B14BF01231D
:1055F0000023DBB2184602B0704782B001900091E0
:10560000019B009AC3F8082300BF02B0704784B022
:105610000190019BD3F880340393019B039AC3F854
:105620008024039B184604B0704782B00190019B10
:105630000422C3F8002500BF02B0704782B0019079
:10564000019B0022C3F8002500BF02B0704784B060
:10565000039002910192039B019AC3F81425039BC6
:10566000029AC3F80C2500BF04B0704700B583B0A0
:1056700001904FF0FF324FF0FF310198FFF7E7FF45
:1056800000BF03B05DF804FB82B00190019BD3F82A
:105690000C35184602B0704782B00190019BD3F8D8
:1056A0001435184602B0704782B00190019BD3F8C0
:1056B0000835184602B0704782B00190019BD3F8BC
:1056C0001035184602B0704784B0039002910192E1
:1056D000039B029AC3F80825039B019AC3F810257F
:1056E00000BF04B0704700B583B001904FF0FF32A7
:1056F0004FF0FF310198FFF7E7FF00BF03B05DF8FF
:1057000004FB82B00190019BD3F81835DBB2184638
:1057100002B0704782B001900B468DF803309DF8BF
:105720000320019BC3F81C2500BF02B0704782B064
:1057300001900B468DF803309DF80330019A134415
:1057400001221A6000BF02B0704782B001900B4680
:105750008DF8033013468DF802309DF803209DF834
:1057600002301343DBB21A46019BC3F86C2500BF1D
:1057700002B0704782B001900091019B009AC3F87B
:10578000242500BF02B0704700B583B00190019B93
:105790001B68184600F0A4F80346002B04D10B49FF
:1057A0004FF4F670FDF760FD019B1B681F2B02D8BC
:1057B0004FF0A04306E0019B1B6803F01F02019B12
:1057C0001A60034B184603B05DF804FB50E000007C
:1057D0000003005000B585B00190084611461A46F6
:1057E00003468DF803300B468DF8023013468DF8D2
:1057F000013001AB1846FFF7C7FF03909DF8032067
:105800009DF802305B001A439DF801309B001A435B
:105810009DF818301B0242EA03019DF81C301B045E
:10582000019A1943039B02F5E07243F8221000BF6E
:1058300005B05DF804FB00B585B00390002301932B
:10584000002300930023012201210398FFF7C2FFE8
:1058500000BF05B05DF804FB00B585B003900B46B2
:105860008DF80B309DF80B3000220192002200923F
:10587000002200210398FFF7ADFF00BF05B05DF8DF
:1058800004FB00B585B0039000230193002300932F
:105890000023012200210398FFF79CFF00BF05B001
:1058A0005DF804FB00B585B0019001AB1846FFF729
:1058B0006BFF0390019B012202FA03F31946039840
:1058C00000F004F800BF05B05DF804FB82B0019061
:1058D0000091019B009AC3F8082500BF02B07047F1
:1058E00084B00190019B5B09029300230393029B08
:1058F000002B03D0029B012B04D007E04FF0FF33B5
:10590000039303E04FF6FF73039300BF019B03F083
:105910001F030193039A019B22FA03F303F001038F
:10592000002B14BF01230023DBB2184604B07047DC
:1059300000B583B001900091009B1B68B3F1FF3F5D
:1059400009D0009B1B681846FFF7ACFF009B1B6843
:105950001846FFF770FF009B5B68B3F1FF3F05D06F
:10596000009B5B6800211846FFF776FF019B1A68D1
:10597000009B9B6919461046FFF7FCFE019B1868C7
:10598000009B597D009B1B7D1A46FFF7DEFE019BA5
:105990001868009B1968009B5B681A46FFF757FE62
:1059A000009B1B7D012B22D1009B9B68B3F1FF3F25
:1059B00005D0009B9B6800211846FFF74DFF009B18
:1059C000DB68B3F1FF3F09D0009BDB681846FFF7A7
:1059D00069FF009BDB681846FFF72DFF019B1868E5
:1059E000009BD968009B9B681A46FFF76DFE00BFBD
:1059F00003B05DF804FB000000B583B001900B46D6
:105A00008DF80330019B1B684FF48E711846FFF729
:105A1000B3FD019B1B684FF4A2711846FFF7ACFD64
:105A2000019B1B680E491846FFF7CDFD019B1B68C3
:105A30001846FFF75DFD03461A469DF803301946E8
:105A40001046FFF75DFD019B1B681846FFF750FDF0
:105A500003461846FFF774FD00BF03B05DF804FB72
:105A60008000020000B583B00190019B1B680849CB
:105A70001846FFF7C2FD019B1B681846FFF738FD6B
:105A800003461846FFF76AFD00BF03B05DF804FB4C
:105A90008402020000B587B00190019B1B68184684
:105AA000FFF7F2FD0590019B1B681846FFF7F4FD18
:105AB0000490019B1B681846FFF7F6FD0390019BBD
:105AC0001B681846FFF7F8FD0290019B1B681846FB
:105AD000FFF7CCFD019B1B681846FFF704FE059BF2
