:1000000000000420750300005D0300005F03000092
:1000100061030000630300006503000000000000AE
:100020000000000000000000000000006703000066
:1000300069030000000000006B0300006D03000076
:100040006F030000195B0000912400006F030000A3
:100050006F0300006F030000152300006F03000012
:10006000157200006F0300006F0300006F030000B3
:100070006F0300006F0300006F0300006F030000B8
:100080006F030000B51700006F0300006F0300004E
:100090006F030000F16400006F0300006F030000B5
:1000A0006F0300006F0300006F0300006F03000088
:1000B0006F0300006F03000000000000000000005C
:1000C0006F0300006F0300006F0300006F03000068
:1000D0006F0300006F0300006F0300006F03000058
:1000E0006F0300006F0300006F03000000000000BA
:1000F000000000006F030000000000006F0300001C
:1001000000000000000000000000000000000000EF
:1001100000000000000000000000000000000000DF
:1001200000000000000000000000000000000000CF
:1001300000000000000000000000000000000000BF
:1001400000000000000000000000000000000000AF
:10015000000000000000000000000000000000009F
:10016000000000000000000000000000000000008F
:10017000000000000000000000000000000000007F
:10018000000000000000000000000000000000006F
:10019000000000000000000000000000000000005F
:1001A000000000000000000000000000000000004F
:1001B000000000000000000000000000000000003F
:1001C000000000000000000000000000000000002F
:1001D000000000000000000000000000000000001F
:1001E000000000000000000000000000000000000F
:1001F00000000000000000000000000000000000FF
:10020000354936480A1A02D0072291438D463449AF
:1002100034480A1A06D00722914381F30988022242
:1002200082F3148830483149314A00F044F83148AB
:100230003149324A00F03FF831483249324A00F041
:100240003AF832483249334A00F035F832483349F7
:10025000334A00F030F833483349344A00F02BF881
:1002600033483449344A00F026F8344834490022EF
:1002700000F02CF833483449002200F027F83348C6
:100280003349091A082902DB002202604160314A21
:1002900090471F481F49884205D00268043003B4C4
:1002A000904703BCF7E700208646EC46002000217B
:1002B000294A9047FEE7884207D0521A05D00378B2
:1002C00001300B700131013AF9D17047884202D0F8
:1002D00002700130FAE770470000042000E00320BC
:1002E0000000042000000420EC7A00000000002040
:1002F00058000020D0030000D00300002675000045
:10030000EC7A000000000020000000208C75000046
:100310008C7500008C7500008C7500008C750000D9
:100320008C7500008C7500008C750000EA7A000066
:10033000447B000058000020580000205800002096
:10034000330D0020340D0020340D0020340D00202A
:10035000342D00209D0300001D330000FEE7FEE762
:10036000FEE7FEE7FEE7FEE7FEE7FEE7FEE7FEE765
:1003700000F002B8FFF7FCBF0F484FF007018843B9
:1003800085460E4880470E48016841F470010160BF
:10039000BFF34F8FBFF36F8FFFF732BF09480A4992
:1003A0000A4A884207D0521A05D0037801300B70F0
:1003B0000131013AF9D1704700000420BD3400003A
:1003C00088ED00E08C750000000000200000002097
:1003D000F0B595B01D46164608460C4601F068FD7E
:1003E0001A9B0D93CDE9086500252B46082205A927
:1003F00020460A958DF82C500C9501F075FD079B51
:100400000293069B03939DF814308DF8115003F06E
:100410000302012A1DD1BDF81420059DC3F3C203B8
:10042000C2F383168DF81030B20008230EA92046BF
:1004300001F05AFDC5F3952508AB0093324602AB97
:100440000EA9284600F0A2FB204601F035FD15B0AC
:10045000F0BD022AF8D1BDF81650C3F3C203C5F3AC
:1004600089158DF810300827082D2E4628BF08263C
:100470003B4632460EA9204601F036FDAD1B08ABC7
:1004800002AA31460EA8374400F0E4FB002DEBD160
:10049000DAE70000014B01221A7070479900002032
:1004A0007047000070B50E4D06460FCD88B06C4603
:1004B0000FC495E80F00002E84E80F00094A0A488F
:1004C0004FF0060308BF00226946009301F07AFD51
:1004D00008B100F03DFE054B1E7008B070BD00BFB6
:1004E0008C750000950400000000002058000020DA
:1004F00007B5044B0093044A4023FFF769FF03B09C
:100500005DF804FB0D0500005900002038B50D48CA
:100510000D4C0E4D002323700378EB5CD2B263B117
:10052000043002F079FC08B100F012FE084B1A7892
:1005300012B12378002BFBD038BD0C3002F0FCF94F
:10054000F1E700BF000000209900002024070020F0
:100550005800002008B50848084A0378D35C3BB12E
:10056000043002F0C9FBBDE808400020FFF79ABF45
:100570000C3002F079F9F6E7000000202407002093
:100580000120FFF78FBF000008B5FFF7F9FF04480F
:10059000042100F065FA034B01225A7108BD00BF27
:1005A0006875000014000020037813F0040216D0D0
:1005B00003F00303012B03D0022B09D00120704765
:1005C0000A6800880232C0F3831002440A60F5E72B
:1005D0000B684288023303EB92130B60EEE7104680
:1005E000704700002DE9F04FDFF810A10F4685B0ED
:1005F0000446861C0020154600F0A4FFDAF804200B
:100600003A60DAF8083003F580739B1A0AF21C4747
:100610000AF583690AF21448B34219D30020002D69
:1006200068D004F00F039B0143F0050363F30F0050
:10063000DAF80430DAB2033233444AF822000020F8
:10064000CAF8043000F080FF012005B0BDE8F08F4B
:100650000121384601F063F9484601F078F9404637
:1006600001F075F9DAF808000090C0B203300AEB27
:1006700080006946FFF798FF009B30BBDAB20AEBB7
:100680008202D16801919A1C0133DBB20AEB830329
:100690000092D3F80CB001F00303012B22D0022BFF
:1006A00015D08346404601F055F910B1009BCAF8B9
:1006B00008305946384601F032F9DAF80830DAF8ED
:1006C000042003F580739B1AA6E7D8B2CEE7BDF8E5
:1006D0000630C3F3891303334FEA1B4B02EB93033A
:1006E0000093DFE7BDF80430C3F383134FEA1B4BDD
:1006F0001344F5E7A40544F0060099E76C010020D7
:10070000064B074810B500221A7001F08AFB044618
:1007100010B9044801F0F2FB204610BD6C01002026
:1007200078750000E075000030B50A4C71B10A4AD6
:100730000A49121BD20800239A4201D1002030BD81
:1007400031F82350854202D00133F5E7034654F8CF
:100750003300F4E7287500006875000000000020F1
:10076000094B013903EBC000032909D8DFE801F088
:100770000A020406042070470079704740797047E8
:10078000002070470220704728750000034BD3E912
:100790000130C31A58425841704700BF6C01002015
:1007A0002DE9FF41FFF7F2FF0546002840F0E98000
:1007B000754CC4F81804BFF34F8FA3680093DBB2E5
:1007C000033304EB83006946FFF7EEFE009B18B18C
:1007D000D4F81824002A5AD0DAB2991C013304EB59
:1007E0008202DBB204EB8303D268DB68029302F07F
:1007F0000303022B0192009154D1BDF806306348E7
:10080000C3F38917502F3E4628BF502606F1080132
:1008100066F38F13C1F30901ADF8063001F019FB3F
:100820000546002800F0988001F042FB00230822D2
:1008300001A9284601F04EFB0099CB43DBB20133FE
:10084000C9B20331B6EB830F4FEA830204EB810197
:1008500025D95FFA82F80823A6EB0806284601F09E
:1008600039FBF6B208F10803494903F0FC033246AC
:10087000284601F02FFB009B033703EB97070097F7
:10088000D4F81834002B43D1D4F8106453E06268D4
:100890009A4294D8A260284604B0BDE8F0810823AB
:1008A0003246E5E7012B57D1BDF804303748C3F392
:1008B0008311062928BF062161F38913023101F053
:1008C0000F018900ADF8043001F0C3FA0546002895
:1008D00042D001F0EDFA0023082201A9284601F0D8
:1008E000F9FA0026BDF80420C2F38312B300964241
:1008F00003F10803C4D200994A1CC9B20331009223
:1009000004EB81010422284601F0E4FA0136E9E70C
:10091000284601F0D1FAFFF739FF80F00100C5B297
:10092000B9E7F3685B7923B1336829461B68304621
:100930009847F3681E68002EF3D1284601F0BCFAF0
:10094000304600F0FFFDD4F818340BB9009BA360CB
:10095000002000F0F9FDDEE7D4F8104454B90D4B47
:100960000D480E49C01AC008000440F0020000F013
:100970005DF8D0E7236820469B689847E3681C68C9
:10098000ECE7002587E700BF6C01002078750000C8
:10099000780100202875000048750000C975000026
:1009A0002DE9F34704460E46924601A90122184656
:1009B0009946FFF717FE1B4F10B3019D4FF000083B
:1009C000AA1CC84508EB020123D11748002100F0FA
:1009D00083FF80F31000000440EA1440E4006B1C25
:1009E00004F03804DBB2EDB244F0010407EB8303FA
:1009F000033544EA881444EA8624D86047F8254041
:100A00003B781BB1FFF7CCFE0028FBD102B0BDE85C
:100A1000F087C9B207EB81015AF82830CB6008F1A2
:100A20000108CEE76C0100208805002000231A464B
:100A3000FFF7B6BF07B50123019201AAFFF7B0FF88
:100A400003B05DF804FB1FB5CDE90123069B0393BA
:100A500001AA0323FFF7A4FF05B05DF804FB000023
:100A600030B50F4CD4F8102403460020114631B99C
:100A7000D96808714AB9C4F810340A6030BDC96831
:100A80000D79854206D00968F1E7D26814680C60D8
:100A90001360F3E701300A28E8D14FF0FF30EDE7AB
:100AA0006C01002038B5084B0125D3F810441D70A7
:100AB00004B938BDE3685D71236820465B689847D8
:100AC000E3681C68F4E700BF6C01002030B5C38800
:100AD00085B004460D4633B1144A00921449154AB4
:100AE000284600F091FF217A05291DD0637A4BB189
:100AF000A088FFF735FE104B104953F820202846F8
:100B000000F082FF227A0E4BA08853F82220039235
:100B10000021FFF709FE039A0A490346284605B05B
:100B2000BDE8304000F070BF05B030BD0C7600006D
:100B3000F4750000EC750000787600001176000076
:100B40009C7600001476000007B503460846197A23
:100B5000052911D05B7A2BB1094A0A49019000F0AE
:100B600053FF01980849019000F04EFF019803B02F
:100B70005DF804EB00F03DBF002AF8D0F2E700BFBB
:100B80000C76000011760000097600002DE9F04394
:100B900085B01F460C9D002395F80C902B730646DC
:100BA0000C46904629463846FFF790FFB8F1060FED
:100BB00009D8DFE808F00412181F28334000314636
:100BC000284600F021FF002229463846FFF7BCFFE7
:100BD00085F80C9005B0BDE8F083226831462846C0
:100BE00000F012FFEFE7D4E900233146284600F079
:100BF0000BFFE8E7A36800933146D4E900232846B9
:100C000000F002FFDFE7E3680193A3680093314639
:100C1000D4E90023284600F0F7FED4E723690293C5
:100C2000E3680193A36800933146D4E90023284682
:100C300000F0EAFEC7E76369039323690293E36860
:100C40000193A36800933146D4E90023284600F0BD
:100C5000DBFEB8E708292DE9F74F80460E46174618
:100C60001C463CD8002593F80C901D73194610467D
:100C7000FFF72CFFDFF888A0DFF888B0AE4231D94B
:100C800018F805205946204600F0BEFE0135082D13
:100C9000F4D11949194DDFF870A0204600F0B4FED8
:100CA0004FF0000B5E4522D918F80B207E2A05D89C
:100CB0001046019206F0A6FB019A00B92E22514679
:100CC000204600F0A1FE0BF1010BBBF1080FE9D1AA
:100CD000012221463846FFF737FF84F80C9003B015
:100CE000BDE8F08F5146204600F08EFECEE7294643
:100CF000204600F089FEE6E7287600002676000010
:100D0000247600001E7600002A760000074B1B5C4C
:100D10001F2B8ABF064A4FF0A04203F01F03D2F8F0
:100D20000405D840C04300F001007047B4760000CD
:100D300000030050074B1B5C1F2B86BF064903F0C6
:100D40001F034FF0A041012202FA03F3C1F80C3552
:100D5000704700BFB476000000030050074B1B5CD7
:100D60001F2B86BF064903F01F034FF0A04101224D
:100D700002FA03F3C1F80835704700BFB4760000EB
:100D80000003005008B50020FFF7E8FF0120FFF73F
:100D9000E5FF0220FFF7E2FFBDE808400320FFF770
:100DA000DDBF08B50020FFF7C5FF0120FFF7C2FF38
:100DB0000220FFF7BFFFBDE808400320FFF7BABFDE
:100DC0000A4B185C1F288ABF094B4FF0A04300F064
:100DD0001F00D3F804250121814021EA02000A40C6
:100DE000C3F80805C3F80C25704700BFB4760000AF
:100DF00000030050074B1B5C1F2B8ABF064A4FF0B5
:100E0000A04203F01F03D2F81005D840C04300F001
:100E100001007047B0760000000300500B2809D095
:100E20000C2809D0182809D019280CBF03204FF02E
:100E3000FF30704700207047012070470220704744
:100E4000C20710B504460CD54FF0A0430322C3F8E7
:100E50003427C3F83827C3F83C27C3F84027FFF7E7
:100E600091FFA3070AD54FF0A0430C22C3F82C270B
:100E7000C3F83027C3F86027C3F8642710BD00000B
:100E8000C30710B507D4F023054A4008145C23407B
:100E90001943115410BD0901C9B20F23F4E700BF73
:100EA0005806002030B5094B1C78094B19680023FF
:100EB0009C4202DC0022104630BD11F833508542BE
:100EC00001EBC302F7D00133F2E700BF2406002094
:100ED0007806002013B504460191FFF7E3FF38B10F
:100EE00043682BB10199204602B0BDE81040184775
:100EF00002B010BD034B044819680022490800F0F5
:100F000022BA00BF280600203006002010B5C0B26B
:100F1000FFF7C8FF0446007801F0EEF963785A1E27
:100F200053425341834208D1044BD3E90023134376
:100F300003D1BDE81040FFF7DDBF10BD5006002013
:100F400038B5334A43080446D35CC2074CBF1B097B
:100F500003F00F030D46042B59D8DFE803F00322FA
:100F60002A363900002952D00121FFF789FF0020DD
:100F700000F0E8FA0120A4F12003C4F12001254A81
:100F800020FA01F100FA03F30B43A040D2E900413B
:100F900020430B43C2E90003BDE83840002000F0C5
:100FA000D3BA002918BF02212046BDE83840FFF718
:100FB00067BF41B10321FFF763FF20460121BDE870
:100FC0003840FFF787BF0121EEE701BB0421EBE7C3
:100FD00009B10321E8E7FFF753FF29462046FFF751
:100FE00079FF284600F0AEFA0120A4F12003C4F1F5
:100FF0002001084A20FA01F100FA03F30B43A04054
:10100000D2E9004124EA000021EA0303C2E738BD27
:1010100058060020500600202DE9F041124E134FD3
:1010200000243378A34208DC114BD3E90023134397
:1010300018D0BDE8F041FFF75DBF3D6805EBC4087F
:1010400015F8340001F058F998F801305A1E53424F
:101050005341181A4142414115F83400FFF770FF1F
:101060000134DEE7BDE8F081240600207806002088
:1010700050060020092AF7B505460C4616463ED90B
:1010800001F062F8E8B11F4B1F481D601F4B204F55
:101090001C70204B002120221E6006F0E1F91E4B3F
:1010A00000200021C3E90001013CE4B20326FF2C2B
:1010B0000DD11A4A1A48002103B0BDE8F04000F0F3
:1010C00037B900F0FBFF0028DDD003B0F0BD9DF87C
:1010D000063015F834008DF8046005EBC40223F0E7
:1010E00007038DF8063001A993788DF805303A464C
:1010F00001F034F8013CE4B20028D8D0E5E707203D
:10110000E3E700BF780600205806002024060020F0
:101110000D0F0000280600205006002019100000C6
:10112000C476000070B5084D084E00242B789C4210
:1011300001D3002070BD3368012113F8340001F0A1
:101140008DF80134F2E700BF240600207806002065
:101150001FB50021039001AA44F20100CDE901115D
:1011600000F004F805B05DF804FB000038B572B675
:10117000FFF798FCFFF714FB0028FBD1104B114C34
:10118000114D1249E41AE408240444F00100FFF769
:101190004DFCD5F8F030DB0700D500BE0C4944F01B
:1011A0000200FFF743FCBFF34F8FEA68094B02F4DC
:1011B000E0621343EB60BFF34F8F00BFFDE700BF5A
:1011C000287500004875000000ED00E0C8760000BA
:1011D000D47600000400FA0510B5D0E90243D1E945
:1011E0000202A04272EB03032CBF0120002010BDBD
:1011F00008B50A4800F0C7FA094AD2E90031C01818
:10120000084BD3E9002341F10001904271EB030345
:1012100003D210F1807041F1000108BD1C000020D4
:1012200080060020F806002037B505460C460A481F
:1012300001A900F0DCFA60B10570446001A906481C
:1012400000F0FFFA18B1054800F0A2FA002003B040
:1012500030BD0420FBE700BFE40600201C00002096
:1012600038B5184B1B78044613B90025284638BDFD
:101270000028FAD0037F03F0FF05002BF5D0FFF71D
:10128000B7FFD4E90223904271EB030314D323691F
:1012900003B92377D4E90530984721690029E4D0C0
:1012A000237F03F0FF05002BDFD0D4E902325B1867
:1012B00042F10002C4E902320348214600F027FE51
:1012C000D4E700BF88060020F076000013B5114B6C
:1012D00011491868019008231048582200F074FA48
:1012E000044698B90E4A0F4801A900F03DF904469A
:1012F00060B90C48012100F029FA01230A4A094883
:10130000194600F08BF9094B01221A70204602B0F1
:1013100010BD00BFEC7600008C060020E406002023
:10132000911300001C000020FFFF7F0088060020B2
:101330003AB103685A614A1E514251411961002075
:1013400070470720704738B5037F04460D4683B9C0
:101350008261FFF74DFF2369281841F10001C4E9BC
:10136000020103B1256121460020BDE83840FFF7A6
:101370005BBF002038BD0023014603770120FFF743
:1013800053BF0000014800F0FEB900BF1C00002060
:101390002DE9F347064600F0E1F940B1584AD2E999
:1013A000003113F1807341F10001C2E900310021E5
:1013B000304600F0E2F938B1524C236823B120687E
:1013C000FFF74EFF002323600121304600F0D5F9DE
:1013D00020B1FFF70DFF4C4BC3E900014B48494DCD
:1013E0004B4C4C4F01A900F03CFA002842D1DFF8E9
:1013F0002081444CDFF82491404600F09EFD236894
:10140000002872D07BB12368D0E90252D3E90213DD
:101410008D4272EB03032AD223681B7F1BB1216824
:10142000404600F074FD404600F081FDD0E9027AAC
:101430000546FFF7DDFE381A6AEB010A01287AF14A
:10144000000345DBB0F5350F40D3FFF79BFF324A71
:1014500002444FF496030021484600F0FFF80028AC
:101460003ED1236813B9304600F0D0F8256002B0B1
:10147000BDE8F0870378012B1DD0022B09D14FF076
:101480000008204600F053FD002836D080F81C806C
:10149000F7E73BB941680B7F23B901230B7720465F
:1014A00000F035FD01A9194800F006FA01A9174816
:1014B00000F0D7F999E741682B68994202D10023DF
:1014C0002B60EFE7204600F03BFDEBE7AA68C0E7A2
:1014D0000021484600F047F92846FFF7C1FE01E029
:1014E0000D28F9D00023236086E7002BBFD13046BA
:1014F00002B0BDE8F04700F08DB801233B70D1E7A2
:101500008006002000070020F8060020E4060020E6
:10151000F076000088060020FFFFB4001C000020C9
:1015200072B6024A13680133136070470407002043
:10153000034A1368013B136003B962B6704700BFEA
:1015400004070020FFF7ECBFFFF7F2BF435882B05B
:101550003BB10023435043580193019B012002B04B
:1015600070471846FBE70000F8B5204B4479204E41
:1015700043F824201F4A204B06EBC4049B1A22790F
:10158000DB081B0432B143F002001C49FFF74EFA9E
:101590000820F8BD02680C88C2F8084590F904508C
:1015A0008A7804795201002DD2B219DB14494F19FF
:1015B00087F8002301226D0904F01F0402FA04F4E5
:1015C00041F82540427906EBC201012446F8320079
:1015D0000C7143F003000B49FFF728FA0020D8E70D
:1015E000094904F00F040A55ECE700BF100700207A
:1015F000080700202875000058750000FC760000E0
:1016000000E100E01E77000014ED00E00368012215
:101610001A607047036801225A60704773B501F180
:101620005005AD000068ADB24FF480348C40002608
:10163000C0F80843C0F84843465101F5A871455920
:10164000019522F07F42019D40F82120C0F84443DB
:101650000BB1C0F8044302B070BD00002DE9F74F94
:101660000D4622F07F4402684FF4803705F15006A2
:101670008F408046B60002EB8500C2F84873B6B2D0
:10168000C2F80873D2F8041599464FF0000BD0F851
:101690004035C0F8401542F806B05B1A92590092E6
:1016A00023F07F43012B009A4FEA850A0CD1264B89
:1016B0004FF4806043F001039847D8F8003043F8B6
:1016C00006B09B590193019BD8F80010D1F804652E
:1016D000C1F84473A31B23F07F43012B1CD11A4B89
:1016E00005F5A875013443F0010341F825404FF496
:1016F00080609847D8F80030D3F804359E4209D16D
:10170000D8F800300020C3F84473C3F8047303B062
:10171000BDE8F08F0D20FAE78A44C9F1FF13CAF83B
:101720004045D1F80405221A013A22F07F4203F520
:101730007F439342EED3002AE2D10134CAF84045F8
:10174000D1F804359842DAE73077000003680222C6
:10175000C3F8442309B1C3F80423704700684FF469
:101760008271FFF7F3BE4FF4803303FA01F103688F
:10177000C3F84813C3F80813704750318900006854
:1017800089B2FFF7E3BE0368D3F804057047000091
:1017900090F90430002B09DB5A09012103F01F03E3
:1017A00001FA03F34032024941F82230704700BF8A
:1017B00000E100E0024B034A1B681068184700BFB5
:1017C000100700200807002010B561B1B2FBF3F448
:1017D00003FB1424A4B244B9C0E9001484608281DC
:1017E000C381204610BD0E20FCE70920FAE737B57B
:1017F00050E8013F9DB2C48925448489A54228BF91
:101800002D1B0489A54202BFBFF32F8F002207E0E2
:10181000C5EA030540E80154002CE9D14FF001026C
:101820008DF803200193019A0A609DF8031001F0DE
:10183000FF0321B1006810FA82F003B030BD1846F2
:10184000FBE70A884B889A4209D150E8012FC2EA87
:10185000024240E80123002BF7D10120704700200D
:10186000704737B550E8023F1FFAA3F5C488A54278
:1018700002BFBFF32F8F00220DE0C4892544848965
:10188000A54228BF2D1BC3EA054540E80254002CA1
:10189000E8D14FF001028DF803200193019A0A600C
:1018A0009DF8031001F0FF0321B1006800EB124026
:1018B00003B030BD1846FBE70A884B889A4209D12D
:1018C00050E8022FC2EA224240E80223002BF7D15F
:1018D000012070470020704710B5034653E8000F01
:1018E0000A4643E8002494F0000FF7D110BD10B56C
:1018F000034653E8002F42EA010043E8000494F055
:10190000000FF6D110BD10B5034653E8000F00EAF2
:10191000010243E8002494F0000FF6D110BD10B589
:10192000034653E8002F02EB010043E8000494F063
:10193000000FF6D110BD10B5034653E8002FA2EBFF
:10194000010043E8000494F0000FF6D110BD01211E
:10195000FFF7CDBF0021FFF7D6BF10B590B1D0E99A
:10196000012301689B1ADBB20A60013BDBB2FF2B4B
:10197000026802D10020107110BD11684C1C146067
:101980000B70F2E70E20F7E738B504460020FFF7AA
:10199000D9FD226863681168994213D9481E106006
:1019A00011F8013CE568218A01FB0355A368117910
:1019B0001B1ADBB2994200D213710020FFF7C4FD5D
:1019C000284638BD0025F8E738B5054600200C4606
:1019D000FFF7B8FD2A681368591C1160E968641A9A
:1019E000298AB4FBF1F41C70BDE838400020FFF7F1
:1019F000ABBD826810B504462AB14369016800692D
:101A000098470023A36010BD0EB403B5039921B11C
:101A100004AB01AA019300F077F802B05DF804EB83
:101A200003B070470A2938B504460D4602D10D218E
:101A3000FFF7F8FFA3682268591CA160D554D4E9C8
:101A400001329A4204D32046BDE83840FFF7D1BFA7
:101A500038BD00002DE9F84F9846DDE90A431546E8
:101A600082460F460A464FF00109AA420FD2C145ED
:101A700038BFC14613F0010B01D16CB90024012617
:101A8000B8F1010F1BD908F1FF386E43F8E709F1EF
:101A90000109B2FBF5F2E8E79B070ED5B8F1000F9C
:101AA0000CBF30262026A145E9D2013C31465046E4
:101AB000FFF7B8FF002CF6D1E0E72026F3E7B7FBED
:101AC000F6F39D42E1D9DFF83C80B7FBF6F35046D0
:101AD00018F8031006FB1377FFF7A4FF3346AB4259
:101AE000B6FBF5F6F1D2BBF1000F02D00CB1A14567
:101AF00001D3BDE8F88F20215046013CFFF792FF4B
:101B0000F4E700BF367700002DE9F74F054617468A
:101B10008846002900F03E8118F8011B49B92B7B4B
:101B2000002B00F03781284603B0BDE8F04FFFF7E7
:101B300060BF252940F0B780002698F800302D2B93
:101B4000424608F1010823D0302B24D02B2B25D07E
:101B500000242A2B02F1010123D13B681A1D1B68C6
:101B60003A601C440A4613782E2B26D101324FF0DE
:101B7000000A104610F8011BA1F1300CBCF1090F4E
:101B80001DD80A2303FB0A13A3F1300A0246F0E72B
:101B900046F00106D1E746F00206CEE746F004061D
:101BA000CBE711F8013CA3F130000928DBD80A2269
:101BB00002FB0434303C0A46CBE74FF0000A12F82F
:101BC000011B01F0FB0068289046F8D0782909D85D
:101BD0006F290CD8632962D022D8252963D05829CF
:101BE00000F0888098F80030002B95D197E7703985
:101BF0000829F7D801A353F821F000BF6F1D00009A
:101C0000E51B0000E51B0000051D0000E51B0000B2
:101C1000E31C0000E51B0000E51B0000F51C0000B4
:101C2000642901D06929DDD13A68D2F80090111DEC
:101C300089EAE9723960A2EBE9724FF0010B092AD7
:101C400035DCD34538BFD3462CB1B9F1000F01DBE9
:101C5000720700D5013CB30702D5BAF1000F03D0DB
:101C6000F00701D44CBB0024B9F1000F2DDAC9F103
:101C700000092D212846FFF7D5FE06F00302022AAF
:101C800004D1BAF1000F01D11CBB0024CDE90046FC
:101C900053460A2249462846FFF7DCFEA2E73B6886
:101CA0001A1D19783A602846FFF7BCFE9AE70A2306
:101CB0000BF1010BB2FBF3F2C1E7A345D4D2202113
:101CC0002846013CFFF7AEFECCE77107D5D52B21A6
:101CD000D0E7A345DAD230212846013CFFF7A2FE27
:101CE000D2E73968CDE900460A1D3A6053460A2218
:101CF0000968D0E739680A1D3A60CDE900465346C5
:101D00001022F5E73B681A1D3A6016F00106D3F879
:101D1000009024D1B9F1000F03D0484605F0D3FB61
:101D20000646B4421DD809F1FF3919F8011F0029F0
:101D30003FF458AF2846FFF775FEF6E72846013610
:101D4000FFF770FE19F806100029F7D1A642BFF47C
:101D500049AF20212846013CFFF764FEF6E7002644
:101D6000F0E720212846013CFFF75CFED9E73B68FD
:101D70001A1D3A60302128461C68FFF753FE78216F
:101D80002846FFF74FFE00220823CDE90032214606
:101D9000102280E703B0BDE8F08F00BF2DE9F84FB7
:101DA000B0F806A04579D2F800B09DF828900AFB5B
:101DB00005F5043D88460BEB0301A94203F1040439
:101DC00088BFA5EB030BB4FBFAF607460AFB1644E3
:101DD000C2F800B04EB9AAEB04055D4528BF5D46C8
:101DE000BBF1000F04D1BDE8F88F3F68013EF1E779
:101DF000043408EB06003C442A46B9F1000F0DD02C
:101E00002146ABEB050B05F002FBDA452E443F689B
:101E100055464FF0000428BF5D46E1E701462046E5
:101E2000EFE7FFF79ABDF8B546790146721E054601
:101E3000002393422D6803D30024A64202D8F8BDA4
:101E40000133F6E70F682846FFF7BEFD0134394637
:101E5000F3E72DE9F843068ACD1C0746FFF794FD0A
:101E6000043E35440446B5FBF6F5F0B14FF48073FB
:101E7000EDB28380C680013D076081464FF00008C7
:101E8000A84512D23846FFF77FFD064648B1637970
:101E90000133637108F10108C9F800000760814649
:101EA000EEE72046FFF7BFFF34462046BDE8F88343
:101EB00001210430FFF733BD10B501210446043081
:101EC000FFF739FDC0B220B92046BDE81040FFF74A
:101ED000AABF10BD1FB503920022009203AAFFF70C
:101EE0005DFF05B05DF804FB1FB50392012200926F
:101EF00003AAFFF753FF05B05DF804FB83680022D7
:101F00005A60C3E904229A60DA601A60704770B5BB
:101F1000446806460D46206818B1B36829469847BC
:101F200018B923682B60256070BD2468F3E7436807
:101F3000186808B102681A607047436818687047EB
:101F40004368186800B97047884203D102681A6074
:101F50000120704703460068F4E700001FB50378CE
:101F60008DF800304368019383688DF80830C368AA
:101F7000054A0393054B684653F8213052F8211067
:101F8000984705B05DF804FB140700201C070020EB
:101F90001FB503788DF800304368019383688DF88E
:101FA0000830C368054A0393054B684653F821304F
:101FB00052F82110984705B05DF804FB1407002083
:101FC0001C070020F0B5194B90F800C0DFF86CE05A
:101FD00043F82C20164B16460A6943F82C204B7FF9
:101FE0000EF80C300C4607460FCC89B06D460FC575
:101FF00094E80F0085E80F003B78CDF810C01EF87C
:1020000003304BB1002E0B4A694608BF3246381DDB
:1020100000F096FD09B0F0BD002E074A694608BFE2
:10202000324607F10C0000F04FFBF3E71C070020DD
:10203000140700205D1F0000911F000024070020EE
:1020400000F1804000F5C040002382B003600368C7
:102050000193019B02B0704703681F2B83BF03F0FD
:102060001F03036001484FF0A04070470003005079
:1020700007B5019001A8FFF7EFFF019B00EB83007C
:10208000D0F8003723F44033C0F80037D0F80037D9
:1020900043EA0141C0F8001703B05DF804FB0000FB
:1020A000054B4FF0FF32072843F8202084BFC018AB
:1020B00080F85820704700BF2807002038B51E4C14
:1020C00094F86A30ABBB4FF6FF71FF205A09012A22
:1020D0000CBF0A464FF0FF3203F01F05EA40D2075B
:1020E00048BFE21803F1010348BF82F83000302BEB
:1020F000ECD10021C8B20131FFF7D2FF0C29F9D190
:10210000062200210D4805F0ABF90D4BC02283F8E3
:10211000062340221A604FF4BE70FFF791FF094B6F
:102120004FF00042C3F80423012384F86A300020F2
:1021300038BD0820FCE700BF280700208C070020DE
:1021400000E100E000600040034B93F86A000038B3
:1021500018BF0120704700BF28070020F7B53D4F8A
:102160003B18044693F93030002B71DA8B78C3F3B7
:102170004003002B0BBF082500250C2008208542BA
:1021800002D1042003B0F0BD57F82560013647D1D5
:1021900038196EB247F8252080F8306013B97B19E2
:1021A00083F858408B785A071AD4D8073AD501A833
:1021B0000194FFF751FF019B00EB8300D0F800373B
:1021C00023F00203C0F800372348E20804F0070CAC
:1021D000012303FA0CF310F802C043EA0C03835402
:1021E00088780B7810F0020028D0AD0005F180450A
:1021F00005F5C0452402D5F8102522F44F3222F40B
:102200004072C5F810251B04D5F8102504F47C5441
:1022100003F440331C431443C5F810450020B1E7D4
:102220000135ACE701A84A780194FFF715FF019B3F
:1022300003F5E073920040F82320C5E7083E47FA13
:1022400086F797F8604044EA831387F8603099E78F
:10225000082097E7280700208C07002073B5244D3D
:102260002E18044696F93020072A1DDD083A45FA53
:1022700082F595F860309B09032B10D1019001A8DD
:10228000FFF7EAFE019BD0F81015D94001F00101DB
:102290000231204602B0BDE87040FFF7E9BE012BD5
:1022A0000CBF02210321F4E7D3B2072B1DD8930002
:1022B00003F1804303F5C043D3F8100540F001005B
:1022C000C3F8100502F1400040B2800080B2FFF771
:1022D000B7FE51B196F9303055F823302BB10123B8
:1022E00003FA02F2034BC3F8042302B070BD00BF2F
:1022F000280700200060004007B5019001A8FFF703
:10230000ABFE019BD0F81005D84000F0010003B0EF
:102310005DF804FB2DE9FF470024CDE90244584D48
:102320004FF48072012102F1804303F5C04390B263
:102330001B68012B06D1D5F804330B4202D0FFF7FE
:102340007FFE0C430432B2F5907F4FEA4101EAD19F
:102350004B4BD3F87C31012B11D14FF4BE70FFF7FA
:102360006FFE4FF0A04344F00044D3F820250292C2
:10237000C3F82025D3F820280392C3F82028E3B21D
:10238000D3B1404F00250126344210D0AB0003F1F9
:10239000804303F5C043D3F81005D3F8101557F860
:1023A000253023B1C1F30141C0F305209847013521
:1023B000082D4FEA4606E7D1002C59DA314D324C50
:1023C000324E4FF00008012716F9013B5A1C3CD051
:1023D000C3F3C20104A801445FFA83F911F8081C91
:1023E00003F03F0203F0070307FA03F319422CD06E
:1023F00001A80192FFF730FE019B03F5E07350F84E
:102400002330C3F3014ABAF1020F0CBF03210221AA
:102410001046FFF72DFE01A80192FFF71DFE019B5C
:1024200007FA03F3C0F82035AB1893F9303055F8AC
:10243000233053B14FEA9911032904D0BAF1020FA6
:1024400019D1012901D11046984708F10108B8F1C6
:10245000040FB9D14FF0A043D3F820250292C3F85E
:102460002025D4F820350393C4F820351343A7D191
:1024700004B0BDE8F087BAF1030FE6D10229E1E725
:10248000006000402807002000030050880700205B
:10249000014B1B68184700BF9407002038B50B4B51
:1024A00098420C4601D0002038BD0020FFF74AF8C2
:1024B000074B1D7915B901221C601A710020FFF726
:1024C00043F8002DEFD01120EEE700BF00200040C0
:1024D00094070020034B984201BF034B00221A606F
:1024E0001A717047002000409407002000234350D9
:1024F00082B043580193019B02B070470A4610B561
:102500004FF48E71FFF7F2FF136A9168C95C136A8A
:1025100001331362C0F81C1510BD8B690A4610B553
:102520004FF4847123B9FFF7E1FFD0F8183510BDDF
:10253000FFF7DCFF536AD168D0F81805C854536A16
:1025400001335362F3E700001FB501238DF800301B
:10255000044BCDE90110D3E900126846904705B05D
:102560005DF804FB9C07002030B54D4DD5F80433D1
:102570009A0585B051D5D5F82431002B4DD04FF4B4
:1025800092712846FFF7B2FF4FF40173C5F8083384
:10259000444B93F829200AB901226A60404902227B
:1025A0008DF80020D1F88024C1F8802403929A6924
:1025B0000292DA6801920022C3E906226846D3E952
:1025C000001290473648D0F81C315BB1354A51694A
:1025D000136A99424DD992F82830002B49D11146FF
:1025E000FFF78CFF2E48D0F84431002B56D04FF423
:1025F000A271FFF77BFF2B4B93F829200AB1012230
:1026000002609A69002A49D0586AD96800229A6102
:1026100005B0BDE83040FFF797BFD5F804335B073E
:10262000D0D5D5F80831002BCCD01E4C1C48214603
:10263000FFF773FF636AA2699A42C3D1E369E16855
:102640004BB1A3612369E3600023606AE3616362C5
:10265000FFF77AFFB6E794F829300BB901236B60D6
:102660000F4B4FF40172C3F808230023606AA36183
:10267000EEE70B484FF48E71FFF738FF5369002BDC
:10268000B0D051690291002391688DF8003001911A
:1026900053616846D2E900139847A3E705B030BDFF
:1026A000002000409C0700201F2886BF00F01F006C
:1026B000044B4FF0A04300F5E070022243F82020C5
:1026C000704700BF000300502DE9F843604D90F8BB
:1026D00004802C2303FB0853064693F82A300C464B
:1026E0009146002B40F0AF805A490068FFF7D6FEB4
:1026F0000746002840F0A9802268531C10D01F2AEA
:1027000087BF554902F01F0313464FF0A041012037
:10271000984003F5E073C1F80805032041F8230051
:102720006168481C0DD01F298BBF01F01F030B46A9
:1027300049484FF0A04003F5E0734FF0000C40F81B
:1027400023C03068A369C0F8243594F814C0637DB1
:10275000BCF1010F4CEA0303C0F86C35C0F8141546
:10276000C0F80C252BD1A368591C0DD01F2B8BBF93
:1027700003F01F021A4638494FF0A04102F5E072FB
:102780004FF0000C41F822C0E1684A1C13D01F2909
:1027900087BF314A01F01F0C8C464FF0A0424FF02A
:1027A000010E0EFA0CFE0CF5E07CC2F808E54FF0C5
:1027B000030E42F82CE0C0F80815C0F810352C22A2
:1027C00002FB08F2AB18C3F804902369AB50B9F1CF
:1027D000000F20D04FF48E71247FFFF787FE4FF457
:1027E000A2713068FFF782FE32681C4BC2F80433D6
:1027F000130B42F307326101002AC9B21EDB1848ED
:10280000841884F800130121520903F01F0301FA10
:1028100003F340F8223033680422C3F800252C2348
:1028200003FB08530022C3E9062283F829205A61DA
:10283000012283F82A203846BDE8F883094A03F0CC
:102840000F03D154E7E70827F5E71127F3E700BFA7
:102850009C07002069250000000300508000020052
:1028600000E100E014ED00E02DE9F0410368057996
:10287000284C0022C3F800252C2202FB0542014609
:102880005268A2B1244AC3F808231A0B43F3073352
:10289000002B0CDB02F01F005B0901228240203379
:1028A0001E4840F82320BFF34F8FBFF36F8F0B6894
:1028B000D3F80C05D3F81485D3F80865D3F8107550
:1028C0004FF0FF329042C3F81425C3F80C25C3F82B
:1028D0000825C3F8102501D0FFF7E6FEB8F1FF3F49
:1028E00002D04046FFF7E0FE7A1C02D03846FFF7E0
:1028F000DBFE731C02D03046FFF7D6FE0868FFF7F8
:10290000E9FD2C2303FB0544002384F82A3063608F
:10291000BDE8F0819C0700208402020000E100E095
:102920000279044B2C2101FB02335869003818BF8F
:10293000012070479C0700202DE9F84F064690F8CB
:10294000048089469246FFF7EBFF044600283CD1FD
:10295000204F2C2508FB057B4FF48E71CBF814A07B
:10296000CBF80890CBF820008BF828003068FFF7F0
:10297000BDFD3068012383605946FFF7BFFDDBF8DA
:1029800004305D461BBB3068DBF814402B6A9C4268
:1029900011D83368D3F81C21002AFBD00122DA6059
:1029A00000202C2303FB087700237B61BDE8F88F10
:1029B00095F828303BB9D0F81C31002BF8D0594697
:1029C000FFF79CFDE2E70F20EBE71120EEE7204642
:1029D000ECE700BF9C0700200023435082B043581F
:1029E0000193019B02B070471FB501238DF80030A1
:1029F000044BCDE90110D3E900126846904705B0B9
:102A00005DF804FBC80700207FB5434AD2F8246173
:102A1000002E60D010464FF49271FFF7DDFF0223C5
:102A20008DF80030D2F88034C2F880340393D2F8A5
:102A30003C350293394BDA6801920022C3E9062241
:102A40006846D3E9001290473348D0F8443173B157
:102A50004FF4A271FFF7C0FF304B9A693AB10022E0
:102A6000C3E90622D968D0F83C05FFF7BDFF2A4824
:102A7000D0F82031ABB14FF49071FFF7ADFF0123D7
:102A8000C360264B5A6962B1D0F84C1502910022FE
:102A900099688DF8002001915A616846D3E90012C7
:102AA00090471D48D0F858319BB14FF4AC71FFF7F7
:102AB00093FF1A4B5A6962B1D0F84C15029100226B
:102AC00099688DF8002001915A616846D3E9001297
:102AD000904704B070BDD2F81031002BB4D04FF441
:102AE00088711046FFF778FF0C4BD2F83C059969C6
:102AF0008842A9D1DC69D96864B1D2F8005225F0C6
:102B00002005C2F800521A699C61DA60DE61FFF7A5
:102B10006BFF99E79C61FAE700200040C80700209E
:102B20001F2886BF00F01F00044B4FF0A04300F5A4
:102B3000E070022243F82020704700BF00030050DD
:102B40002DE9F843664E90F80480242303FB0863C4
:102B5000044693F820300D469146002B40F0BC808F
:102B600060490068FFF79AFC0746002840F0B680ED
:102B700029684B1C10D01F2987BF5B4A01F01F0337
:102B80000B464FF0A0420120984003F5E073C2F8D5
:102B90000805032042F823006A68501C0DD01F2A44
:102BA0008BBF02F01F0313464F484FF0A04003F5C0
:102BB000E0734FF0000C40F823C02068AB69C0F808
:102BC000243595F814C06B7DBCF1010F4CEA03036A
:102BD000C0F86C35C0F80C15C0F814252BD1AB68C3
:102BE000591C0DD01F2B8BBF03F01F021A463E4904
:102BF0004FF0A04102F5E0724FF0000C41F822C006
:102C0000E9684A1C13D01F2987BF374A01F01F0CFF
:102C10008C464FF0A0424FF0010E0EFA0CFE0CF560
:102C2000E07CC2F808E54FF0030E42F82CE0C0F853
:102C30000815C0F81035242202FB08F2B318C3F8B7
:102C400004902B69B350B9F1000F2FD04FF4887165
:102C50002A7FFFF7C1FE20684FF49071FFF7BCFE9A
:102C600020684FF49271FFF7B7FE20684FF4A2710D
:102C7000FFF7B2FE4FF4AC712068FFF7ADFE23689A
:102C80001A49C3F80413190B43F307335201002BFD
:102C9000D2B21CDB1648C51885F8002301225B0957
:102CA00001F01F0102FA01F140F823102368082205
:102CB000C3F80025242303FB08660023C6E9063376
:102CC0007361012386F820303846BDE8F883094B4C
:102CD00001F00F015A54E9E70827F5E71127F3E758
:102CE000C8070020092A000000030050100342001A
:102CF00000E100E014ED00E02DE9F0413D4D0679E2
:102D00000468242303FB065302465B68ABB13A4BCD
:102D1000C4F8083344F30733002B4FEA14310CDBBB
:102D200001F01F005B09012181402033334840F846
:102D30002310BFF34F8FBFF36F8FD4F8003223F00F
:102D40002003C4F80032242303FB06539B6933B1EC
:102D50004FF4A2712046FFF73FFE012363604FF45A
:102D6000AC712046FFF738FE0123E360242303FB08
:102D70000653D4F858110029FBD0996919B1D4F839
:102D800044110029F5D00023C4F800351368D3F8A6
:102D90000C05D3F81485D3F80815D3F810754FF047
:102DA000FF329042C3F80C25C3F81425C3F8082558
:102DB000C3F8102501D0FFF7B3FEB8F1FF3F02D0F2
:102DC0004046FFF7ADFE7A1C02D03846FFF7A8FE5A
:102DD0004B1C02D00846FFF7A3FE2046FFF77AFB04
:102DE000242303FB0655002385F820306B60BDE8E3
:102DF000F08100BFC80700201003420000E100E09E
:102E00000279044B242101FB02335869003818BFB2
:102E100001207047C807002001F06043B3F1005F54
:102E20002DE9F0470646884692463BD190F804903B
:102E3000FFF7E6FF0446002836D11D4F30682425F1
:102E400005FB09754FF49071C5F814A0C5F808800A
:102E5000FFF7C2FD4FF4AC713068FFF7BDFD33687A
:102E60006A69A968C3F84415C3F8482501229A6025
:102E70006A68DAB9D3F82021D3F858011AB90028C2
:102E8000F8D00F2007E00028FBD10122DA60D3F848
:102E90005821002AFBD0242303FB097700237B6100
:102EA000BDE8F0871020FBE71120F9E72046F7E79F
:102EB000C80700200220FDF783BF00002DE9F0477E
:102EC00080460D46FDF7AAFF0328044610D8012DC1
:102ED00010D0022D30D05DB91A48FEF74CFA1A4BCB
:102EE00004EB440213449D78184B1B5DAB4219D090
:102EF000BDE8F087144E00EB4003F218F55C537800
:102F0000470053B1DFF84C900E484A464FF48041D9
:102F1000FEF719FA08B989F8008027443E440B4BA4
:102F2000B2781A55002DE3D0094B1B68002BDFD077
:102F30002846BDE8F047184700EB40040248044427
:102F40006578EFE71008002050080020690800208D
:102F500064080020EC07002000780221FFF7AEBFD4
:102F600008B5094B1B7853B10020FDF7F7FE01208F
:102F7000FDF7F4FEBDE808400320FDF7EFBEBDE815
:102F80000840FDF7FFBE00BFED070020F8B57A4C02
:102F9000237805461BB100232370FFF7E1FF172DAF
:102FA00000F28780DFE805F00C1717425364757F45
:102FB000878C878C949999999999C3C8D0D8E3E361
:102FC000FFF7CEFF6D48FEF7D6F96D4B00220446A1
:102FD0001A702046F8BD0020FDF798FEF0B10020E1
:102FE000FDF7BCFE022D0CBF4FF4E1644FF47A6490
:102FF000634B1D7000254FF400464FF47A7029464C
:103000004FF4FA620023E4FB060104F03BF92A4680
:103010000146BDE8F8405948FEF795B9FDF78AFE2C
:10302000022D0CBFC8244FF4C874E1E70020FDF75F
:103030006DFE40B10020FDF791FE4FF44874504BF7
:1030400003221A70D6E7FDF775FEC824F7E70020C3
:10305000FDF75CFE38B10020FDF780FE4FF47A6486
:10306000474B0422EDE7FDF765FE4FF4C874F7E720
:103070000020FDF74BFE48B10020FDF76FFE404BEE
:1030800005221A7040F6CD410022C2E7FDF752FE3C
:10309000F5E70020FDF794FE394B06221A70002256
:1030A00040F26661B5E70020FDF744FE344B07228D
:1030B0001A7000248DE701202070FDF781FEEEE7F5
:1030C00001202070FDF77CFE00224FF40051A0E7A4
:1030D000FDF767FE2A4B0C22EAE72A482A4EFEF744
:1030E0004AF9D5F1110504461CD0D8B9012D13D0E9
:1030F000C820454321464FF400474FF47A704FF4FF
:10310000FA620023C5FB070104F0BCF82246014621
:103110001C48FEF718F904460220FDF70BFE0123B8
:10312000337056E70220FDF719FE0023F8E7FFF79A
:1031300017FF134B1222BBE7FFF712FF0020FDF72A
:10314000F9FD0F4B1322B3E7FFF70AFF0120FDF74C
:10315000F1FD0B4B1422ABE7FFF702FF0020FDF758
:10316000E9FD0120FDF7E6FD054B1522A0E7FDF77F
:1031700018FE034B1D709CE76008002030080020FB
:1031800068080020F0070020ED070020044B1B68B2
:10319000DB0703D5034B1878FFF7F8BE704700BF75
:1031A0005C08002068080020032801D8FDF722BE33
:1031B0000020704738B51C4B18601C4B10F00204FF
:1031C000054619601AD01A4B1A480E221A700F229F
:1031D000DA7010229A7111225A72042140F23332AD
:1031E000FDF748FF044648B9FDF79CFF044628B99F
:1031F0000146114A1148FEF79BF80446EB0711D52A
:103200000120FDF71DFE6CB921460D4A0D48FEF761
:103210008FF8044630B9BDE838400B4A0B4801210D
:10322000FEF786B8204638BD5C0800206408002000
:103230005008002068770000592F00008C770000AC
:103240008D31000090770000B52E000088770000D7
:1032500070B500252C4601262846FFF7A5FF18B1BA
:1032600006FA05F00443E4B20135042DF4D1E0433D
:10327000C0B270BD7FB520231B49039303AA054646
:1032800000F002FB48B91948194B1A491B1ADB0810
:103290001B0443F00100FDF7C9FB039B63B1124B14
:1032A0001E78002446FA04F3DB07204619D5FDF703
:1032B00041FD0134042CF5D1FFF7CAFF0E4901226C
:1032C0000870284600F086FA48B90948074B0B49B0
:1032D000C01AC008000440F00100FDF7A7FB04B0CD
:1032E00070BDFDF73BFDE4E76E0800202875000087
:1032F00048750000947700006D080020A377000057
:1033000082B002AB03E9060002B0704782B002ABA4
:1033100003E9060002B07047704700002DE9F3474B
:10332000FDF7D4FF08B1FDF713FF00210320FFF7DD
:1033300041FF08B1FDF70CFF4FF480410020FDF77D
:10334000DFF908B1FDF704FFFDF71EF9414D424BCF
:103350004249ED1AED082D0445F003073846FDF704
:1033600065FBFDF71DFA0028FBD10120FDF768FD84
:10337000012000F08DF928B900F032FB00F5034080
:10338000FDF7E6FE364800F0F1FA28B900F028FB18
:1033900000F50340FDF7DCFEFFF75AFF314B3249E1
:1033A00018700122002000F015FA40B92F4945F0AD
:1033B0000100FDF73BFBFDF7F3F90028FBD100F01E
:1033C000F9F928B900F00CFB00F50340FDF7C0FE49
:1033D0002749234EDFF8A4803846FDF727FBFDF789
:1033E000DFF904460028FAD120BF3368B3F57A7FAD
:1033F000F5D3FEF7A7F8414645F00500FDF716FBAB
:1034000032681C49DFF878A03846FDF713FB726874
:1034100019493846FDF70EFB00F070FA5FFA84F99F
:10342000484504F1010405D80020FEF78DF800F0AE
:103430006BFAD4E709F1020209F1120356F82220CF
:10344000009256F823304A4651463846FDF7FBFABB
:10345000E2E700BF4875000028750000B277000061
:10346000900800206D0800206E080020A37700005F
:10347000D9770000007800001E780000097600006F
:103480003F7800004FF08053D3F83001A0F10803DB
:1034900058425841704700004FF08053D3F8302114
:1034A000082A06D1D3F83431032B02D8024AD05C63
:1034B00070470020704700BF7578000008B5FFF71F
:1034C000E1FF40B14FF080430022C3F80C21C3F864
:1034D0001021C3F83825FFF7D5FF002846D04FF05C
:1034E0008052614BD2F80414C3F82015D2F80814A6
:1034F000C3F82415D2F80C14C3F82815D2F8101408
:10350000C3F82C15D2F81414C3F83015D2F81814D7
:10351000C3F83415D2F81C14C3F84015D2F820149F
:10352000C3F84415D2F82414C3F84815D2F8281467
:10353000C3F84C15D2F82C14C3F85015D2F8301437
:10354000C3F85415D2F83414C3F86015D2F83814FF
:10355000C3F86415D2F83C14C3F86815D2F84014C7
:10356000C3F86C15D2F84424C3F87025FFF794FF14
:1035700018B13E4B3E4AC3F88C26FFF78DFF18B1B9
:103580003C4BFB22C3F81825FFF786FF70B14FF0C4
:1035900080414FF08053D1F8E42ED3F8583222F016
:1035A0000F0203F00F031343C1F8E43EFFF774FF6B
:1035B00020B1314B4FF40072C3F84026FFF762FF91
:1035C00048B14FF08043D3F80024D20744BF6FF0D6
:1035D0000102C3F80024294AD2F8883043F470036A
:1035E000C2F88830BFF34F8FBFF36F8F4FF01023B7
:1035F000D3F80022002A03DBD3F80432002B2EDAA2
:103600001F4B0122C3F80425D3F80024002AFBD065
:103610004FF010221221C2F80012D3F80024002A21
:10362000FBD04FF010231222C3F80422144BD3F81E
:103630000024002AFBD00022C3F80425D3F800247C
:10364000002AFBD0BFF34F8F0C490E4BCA6802F41F
:10365000E0621343CB60BFF34F8F00BFFDE70A4B1F
:103660000A4A1A6008BD00BF00C000400050004078
:103670004881030000F000400090024000ED00E0AF
:1036800000E001400400FA05240000200090D0036F
:103690002DE9F0413F4B404D404F002421460C2284
:1036A00080463F481C602C7003F0DAFE3D4801F074
:1036B00089F93860002845D0042001F0AFFA3B6852
:1036C0005E7DD6B9384C2268531E0F2B44D837493B
:1036D000084603F09CFE2168344801F083FAB8F1F3
:1036E000010F4FF001060ED1022001F0AFF83B6848
:1036F000587D98B901F0D2FA13E0022326462B70C8
:10370000B8F1010FF0D041D3B8F1020F20D005235A
:103710002B7000263B68587D0028EBD002232B70CD
:103720000026002001F08AFA3B685B7DBBB10223D2
:1037300001202B7001F09EFA00231D4A18461360E9
:1037400000F0DEFF012300262B703046BDE8F0813B
:10375000002001F07BF8DDE707232B70D0E7012084
:1037600001F078FA3B685C7D002CE0D1204601F046
:103770009BFA012001F07EFA0D4B20461C6000F000
:10378000BFFF002EDED03046BDE8F081012001F001
:103790005DF8BFE7200900201C0900202409002053
:1037A0002C090020F13900003800002028000020FA
:1037B0002809002008B5054B186818B100F0A6FFCD
:1037C000012008BD024B02221A7008BD2409002006
:1037D0001C090020072808D869B1202A10D9284BD5
:1037E000062200211A7008467047254B042200214A
:1037F0001A7008467047224B03221A700846704719
:10380000F0B583B0054616460C4601F0E5F90228EE
:1038100006D91B4B09221A700021084603B0F0BDDF
:10382000284601F0DBF9022804D9154B0A221A7048
:103830000021F2E701F0D4F9012804D8104B082246
:103840001A700021E9E701F061F94378067043F04E
:1038500001034370074632462146023003F0D7FD8C
:103860003946E8B201F066F901460028D5D1019049
:10387000044803F06FF9024B01990F221A70CCE74C
:103880001C090020FC00050070B50D4616460446D4
:1038900001F0A4F988B15DB1204601F09BF93268CE
:1038A00003789A420DD2134B06221A70002070BD85
:1038B000104B03221A70284670BD0E4B0B221A7053
:1038C00070BD204601F07CF9044658B101462846F7
:1038D00011F8022B326003F09AFD204601F020F926
:1038E000012070BD044803F035F9024B0F221A7015
:1038F000204670BD1C09002026010500014B1868F8
:10390000704700BF38000020174B1A68002A2AD0E1
:10391000012282F310881A680023C2E90033936001
:103920009364D360D36413611365536153659361EA
:103930009365D361D36513621366536253669362D2
:103940009366D362D36613631367536353679363BA
:103950009367D363D3671364C2F880305364C2F8AB
:10396000843083F3108870472809002000282ED067
:10397000194B0121186081F310881A680023C2E9ED
:10398000003393609364D360D36413611365536110
:10399000536593619365D361D36513621366536274
:1039A000536693629366D362D3661363136753635C
:1039B000536793639367D363D3671364C2F880300C
:1039C0005364C2F8843083F3108808467047034B71
:1039D00003221A70704700BF280900201C0900202C
:1039E000014B1878704700BF1C090020704700BFCA
:1039F00070B5037882B00446072B00F2C380DFE87D
:103A000003F03663968492040821FFF785FC02B028
:103A100070BD654A8379126893420AD2634A12687C
:103A20003AB102EB8303996801319960536801331D
:103A300053605F4B1B68002BE9D061792079984770
:103A400002B070BD584A8379126893420AD2574A2D
:103A500012683AB102EB83039968013199605368A7
:103A600001335360534B1B68002BE6D1CFE74E4A1E
:103A7000037C126893420AD24C4A12683AB102EBB4
:103A80008303996C013199641368013313606D46A7
:103A900028460822002103F0E3FCA37B667BA16893
:103AA000227B60688DF80030E37BCDF802108DF842
:103AB00006208DF8073001F033F8304695E806000F
:103AC000FFF71EFC02B070BD6D462846082200219B
:103AD00003F0C6FC384B1B685B7D13B9374803F015
:103AE00039F8A268267B637B6068CDF8022000224B
:103AF0008DF800208DF8073001F012F8304695E877
:103B00000600FFF703FC02B070BD2D4B5A68197810
:103B100001325A6000293FF47AAF9A68002A36D001
:103B2000013A9A6073E7FFF761FF02B070BD1E4A69
:103B3000037B126893420AD21C4A12683AB102EB24
:103B40008303996C01319964136801331360032274
:103B50000021684603F084FCA37A217AE27A657A30
:103B60008DF800308DF801108DF8022064681BB1CB
:103B7000ACB1204600F0D4FF28460099FFF77AFB4D
:103B800002B070BD0F4802F0E5FF02B070BD00F05A
:103B900055FE00287FF439AF00F012FE37E70A48DF
:103BA00002F0D8FFE5E700BF380000202809002018
:103BB0001809002038090020240900203D040500D0
:103BC0002C090020BC04050063040500024A034BD5
:103BD0000F211170186070471C0900202009002077
:103BE0002DE9F0475C4BD3F80024012A86B003D0BE
:103BF000D3F83435002B36D1584B594C5B681D78BF
:103C00002369202D8CBF00250125002B30D002F028
:103C100019FF012802D0534802F09CFF524E33682E
:103C20001B7D002B47D101F07FFE45BB23784F4A17
:103C30000121022B117001D063688BB102F0A8FD45
:103C4000054601F0AFFBA27D8DF80900062301A80F
:103C50008DF808508DF80A208DF8043002F0F8FB3A
:103C600006B0BDE8F0873E4C23690025002BCED17D
:103C700003F022FA0028CAD101232361C7E70121FA
:103C8000084602F001FD0546002840D0022816D063
:103C900002F0B8FF364B21785A69E0600229626071
:103CA00000D092B3DB68334A0020136002F0B0FF0B
:103CB00006B0BDE8F087304802F04CFFB3E702F0F1
:103CC0006DFD3368278993F916906689804602F066
:103CD0005FFD054601F066FBA17D8DF81300002213
:103CE000012301A88DF81090CDF80880ADF80C7074
:103CF000ADF80E608DF811508DF814108DF8042079
:103D00008DF8123002F0A4FBC2E79B68CBE702F00B
:103D100045FD3368B4F8088093F916A06789814699
:103D200002F036FD064601F03DFBA37D8DF8130041
:103D300001A88DF810A0CDF80890ADF80C80ADF872
:103D40000E708DF811608DF804508DF812508DF8BA
:103D5000143002F07DFB9BE7001000409C0900201E
:103D6000840900203C070900B4090020480900200C
:103D7000500900203C0900203D07090038B5224DBC
:103D8000224C01F0D1FD0123214A2B702149D2F8A8
:103D90003035096923F0FF030B43C2F830350023A7
:103DA000236102F04FFEE8B902F08EFB012821D812
:103DB000022001F085FC002001F0ECFC02F042FE44
:103DC000032802D0144802F0C5FE2B78012B02D044
:103DD000124802F0BFFE124B022100222970C4E9F2
:103DE000033238BD02F02EFE0328E1D00D4802F068
:103DF000B1FEDDE702F0DEFC60600028D8D10A48A1
:103E000002F0A8FED4E700BF490900209C09002069
:103E100000100040500900200106090007060900B3
:103E20002D3E0000F9050900F40509002DE9F041D7
:103E3000624B634CD3F80024012A88B002D0D3F837
:103E4000343503BB63681B78202B1CD85D4D5B4B5E
:103E50000321002229702260D3F80864D3F80824D3
:103E6000C3F82C25D3F80C24019402A80123009058
:103E70003146184602F00CFD032800F28F80DFE87F
:103E800000F0805C382C504E4E4D33784B4A032165
:103E9000297000212160022BD2F8087401D07368C8
:103EA00073B101F07FFAB27D8DF81100062303A8EB
:103EB0008DF812208DF810708DF80C3002F0C8FAD1
:103EC0000023CDE900331A461946184602F0E0FCFB
:103ED000042802D03D4802F03DFE2668002E54D052
:103EE00001233B4A6375042322612B7008B0BDE8AF
:103EF000F081029B002B5DD0304602F0EBFD0028E4
:103F000050D0344B029F1B6893F9168001F04AFA97
:103F10002D4B8DF81700997D8DF814800222012316
:103F200003A804978DF815608DF818108DF80C20F3
:103F30008DF8163002F08CFACFE7029B13B12648B9
:103F400002F008FE304602F0C5FD78B3214B1B6835
:103F500093F9167001F026FA1B4B8DF81700997D26
:103F60008DF814700023022203A88DF815608DF8D7
:103F700018108DF80C2004938DF8163002F068FAB2
:103F8000ABE7164802F0E6FDA7E701F0CDFC667549
:103F90002661FFF7F3FE08B0BDE8F081104802F09B
:103FA000D9FD9AE70F4802F0D5FDAAE70E4802F0C6
:103FB000D1FDCBE70D4802F0CDFD9DE7001000409C
:103FC0009C090020490900208409002058060900A6
:103FD0004D460000B40900202D06090038060900EE
:103FE000490609003D0609002E0609003C060900A5
:103FF00030B589B003F05AF8012828D11E4D01F0E0
:1040000093FC08A80523002400F8143DAC706C75DF
:1040100002F01EFA194A1A4B14704FF44072C3F89A
:10402000082502F00FFD80B1022820D903280CD109
:10403000CDE90044234622462146204602F028FCD2
:10404000042802D00F4802F085FD09B030BD03F00E
:104050000BF80D4B1B7F1BB94FF0804301225A60B8
:104060000020054D02F04EFD00236B60C7E721469E
:10407000204602F009FBE3E78409002049090020FB
:1040800000F0014048020900500900202DE9F04FDE
:10409000E34DE44FE44AE54E4FF440780024012319
:1040A000C7F85445C7F80885C5F8FC4FC5F8FC3F6C
:1040B000D5F8143523F48073C5F81435D5F81435C4
:1040C00023F00F0343F00603C5F81435D5F8143573
:1040D00023F4702343F44033C5F81435D5F818356C
:1040E00023F00073C5F81835D5F8183543F0807300
:1040F000C5F81835D5F8183523F0FF0343F0200331
:10410000C5F81835D5F81835022123F47F4385B05A
:10411000C5F81835C2F8801103F074F8C44AC54BCD
:10412000C7F85C05C7F85825C7F804851968C24860
:1041300001F03EF9D6E90832C04996F81DA00860A2
:10414000110A180A0E464FEAC31B0BF4FF474FEA49
:10415000C01E4FEAC61B0BF4FF490EF4FF4EC0F31E
:10416000C01B4BEA0E0B4FEA401E0EF0400C4BEA10
:104170000C0EC3F3C01C4CEA070B4FEA431C0CF0B7
:1041800040074BEA070CC6F3C01B4BEA090B4FEA8A
:1041900046194FEAC21809F040094BEA090B08F426
:1041A000FF48C2F3C019190C49EA08084FEA42193E
:1041B0000096CF01160C09F0400948EA090807F4F7
:1041C000FF474FEAC619029709F4FF49D5F8187559
:1041D000CDF80C904FEAC00909F020094EEA090E0B
:1041E0004FEAC309029E09F0200927F4E02747EAB5
:1041F0000A474CEA090CC1F3C01ACDF804C04AEAD8
:10420000060A4FEA411C009E0CF0400C4AEA0C0AD8
:104210004FEAC60C0CF0200C4BEA0C0B4FEAC20C18
:104220000CF0200C48EA0C0CCDF808C0C5F8187545
:10423000470007F010074EEA070E470807F0080787
:104240004EEA070EC70807F0040740094EEA0707C1
:1042500000F00200019E074358004FEA530E00F0A1
:10426000100030430EF0080E40EA0E004FEAD30E65
:104270004FEA13690EF0040E5B0940EA0E0003F0EA
:10428000020303431B06FFB243EA0747CB0003F0D8
:1042900020034AEA030A4B00480803F010034AEAE5
:1042A000030300F008000343C808019700F004006E
:1042B0004F09034307F002014FEA4910039E1943D7
:1042C00000F04003100CC0F3C0173743064640010E
:1042D00000F0400007434FEAE91040EAC9101843D4
:1042E000009B4FEA42084FEA430E029B08F0100879
:1042F00043EA0808F30003F020031F43019BC9B2FF
:1043000043EA01214FEAC90303F0200318434FEAAF
:10431000490303F0100318434FEA590303F008035D
:1043200018434FEAD90303F004034FEA59194FEA3F
:10433000126C034309F0020900984FEA4C1A43EA51
:1043400009094FEAEC1343EACC130AF0400A43EAA6
:104350000A0A0EF0100E43084BEA0E0E03F0080393
:104360004EEA030E530803F0080348EA03087300FB
:1043700003F010031F434FEACC0303F020034AEA83
:10438000030AC30803F004034EEA030ED30803F044
:1043900004034FEA501B520948EA03080BF00200DD
:1043A000730802F0020203F008034EEA000048EA34
:1043B00002021F43C0B24FEA4C03120603F010037F
:1043C00042EA0042F0084AEA030A00F004007309D6
:1043D000384303F0020318434FEA5C034FEADC075B
:1043E00003F0080307F004074AEA03034FEA5C1CE2
:1043F0003B430CF0020CC0B243EA0C0342EA002239
:104400005FFA89F9DBB2094E49EA01011343C5F8A5
:104410001C152846C5F82035FF2706F128051CE0A5
:104420000010004000F0014000E100E050090020D1
:10443000041100404C0900209C090020B409002010
:10444000D0F824150A40C0F82425D0F824250134DA
:104450001343082CC0F824353CD015F8012B02F08A
:104460000101D3094FEA421C43EAC1130CF0400C8E
:10447000D10043EA0C0301F020014FEA420C0B4348
:104480000CF0100C510843EA0C0301F008014FEA4C
:10449000D20C0B430CF0040C520904F0030102F09F
:1044A0000202C90043EA0C031343032C07FA01F28A
:1044B00003FA01F36FEA0202C2D9D0F828150A40C4
:1044C000C0F82825D0F8282501341343082CC0F85B
:1044D0002835C2D12149224B91F83020C3F80C2550
:1044E000D3F8342591F8311022F0FF020129C3F8E6
:1044F000342524D01ED302290ED01A4802F02AFBFC
:10450000164B93F832300BB1012B02D1144AC2F88A
:10451000103505B0BDE8F08FD3F83425124942F0CC
:1045200002024FF6FF70C3F83425C3F83C05C3F808
:104530003815E5E7D3F83425C3F83425E0E7D3F898
:104540003425FF2042F0010240F20711C3F8342560
:10455000C3F83C05C3F83815D2E700BF5009002066
:104560000010004033040900211001002DE9F04142
:104570002D4F2E4D2E4E4FF00008C7F8088002F048
:1045800007F9C5F82C05D5F8304502F001F90123EB
:1045900003FA00F024F0FF040443C5F8304502F0AC
:1045A000FDF8306002F000F9224A234B82F80080C7
:1045B000F360706002F0FCFAC5F8080502F022FB17
:1045C000B87502F03FFA012804D002F03BFA022845
:1045D00015D1002001F074F802F018FE174B184AAC
:1045E000C3F850051268174C5268C3F85425206868
:1045F00018B1037873B903792BB9BDE8F08112487B
:1046000002F0A8FAE5E700F0BBFE2068BDE8F04143
:1046100000F098BE02F0FAFD216800F031FE20683B
:104620000379002BE9D0EEE7840900200010004058
:104630009C09002048090020E13B000000F00140F7
:10464000B40900204C0900209C06090038B5234C11
:10465000234D0523237001F067F90123214A2370BC
:104660002149D2F83035096923F0FF030B43C2F822
:10467000303500232B6102F0E5F9E8B901F024FFA1
:10468000012821D8022001F01BF8002001F082F857
:1046900002F0D8F9032802D0144802F05BFA23781C
:1046A000012B02D0124802F055FA124B02210022CF
:1046B0002170C5E9033238BD02F0C4F90328E1D006
:1046C0000D4802F047FADDE702F074F86860002850
:1046D000D8D10A4802F03EFAD4E700BF49090020C9
:1046E0009C0900200010004050090020010609002C
:1046F000070609002D3E0000F9050900F405090030
:10470000014B1860704700BF4C09002038B5234C9E
:10471000637D03B138BD224DFFF7B8FCAB68002BB9
:1047200034D06B6873B302F0FBF938BB002002F0A1
:10473000E9F90123637502F0B9FC0128EAD102F01E
:10474000F5F938BB00226421164802F0BBFC164B79
:104750001B7F7BB94FF08042144801210160C2F8F1
:104760000031116000BF00BF00BF00BFD2F80031B0
:10477000002BFBD0BDE8384002F06ABC0C4802F0C8
:10478000E9F9D3E70B4802F0E5F9CCE70A4802F073
:10479000E1F9C6E7094802F0DDF9D3E78409002012
:1047A0003C090020396B000050090020140500402E
:1047B000D4020900CF020900CE020900B90609009F
:1047C00008B5012282F31088174B597D09B19978F9
:1047D00019B1002383F3108808BD9A7002F066FCBB
:1047E0000128F6D102F0A2F9D0B9002264210F48C5
:1047F00002F068FC0E4B1B7F7BB94FF080420D48E6
:1048000001210160C2F80031116000BF00BF00BF8C
:1048100000BFD2F80031002BFBD002F019FCD8E722
:10482000054802F097F9E0E784090020396B0000A1
:104830005009002014050040B9060900024B587DBC
:1048400080F00100704700BF8409002070B501238B
:1048500088B083F31088514C2378834207D0627D5F
:104860006070054642B102F021FC01282DD00023E2
:1048700083F3108808B070BD002B60D0002D43D0AA
:10488000474B484E0025C3F8545501F04DF82378A6
:104890003561012BC6E90055C6E9025555D0022BFA
:1048A00061D06368002B56D13F4B99683F4A08A8F6
:1048B000042300F8143D63782370116001F0C8FDF3
:1048C000002383F3108808B070BD02F02FF9002890
:1048D0005BD100226421364802F0F4FB324B1B7F8F
:1048E0007BB94FF08042334801210160C2F80031AA
:1048F000116000BF00BF00BF00BFD2F80031002B25
:10490000FBD002F0A5FBB2E7254B4FF44072C3F891
:10491000082502F097F80028B2D002281ED90328F3
:10492000AED1CDE900552B462A462946284601F04E
:10493000AFFF0428A4D0204802F00CF9A0E7FFF74D
:10494000A5FB6578002D9BD1DEE702F07BF800BB6C
:104950002378022BA5D1144BD968A7E7294628460E
:1049600001F092FEE5E700F0DFFF144B35611D70AA
:1049700002F068F80328EBD1CDE900552B462A4612
:104980002946284601F084FFE2E70D4802F0E2F8EC
:104990009FE72946284601F077FED9E784090020E1
:1049A00000F001409C090020500900203C09002033
:1049B000396B000014050040480209004909002035
:1049C000B90609002DE9F0418046012787F31088D8
:1049D000424B434C434E677000250322C3E9005508
:1049E000C3E902551D611D752270A570C4E901550A
:1049F000C4E9035525756575C6E9015502F0F0FA5D
:104A0000404601F009FD01F0AFFD284602F072F8C2
:104A1000304602F0A1F8344B202283F80853384680
:104A200083F8015383F81523FFF710FF2F4B30480D
:104A3000227883F83050FF2119612E4959620425EC
:104A400069215D7718622C4D2C48196002219D6206
:104A5000D8621E254FF416708A4283F832705D6169
:104A6000586083F83110D96034D062680F21002A71
:104A70000CBF0A46022299600021326008460122DA
:104A8000598319771A765A7602F02EF86378012B3B
:104A900002D01B4802F05EF81A491B4A0025012388
:104AA0000D6015702370A570C4E90155C4E9035564
:104AB00025756575FFF7EAFA0B4B4FF480714FF4DB
:104AC0000012C3F88011C3F8802185F310880448D0
:104AD000BDE8F0810F219960CEE700BF9C0900205E
:104AE000840900203C09002000E100E0500900207A
:104AF00004070A0D05080B0E01020304050607084A
:104B00009F0209004C0900204809002008B5012334
:104B100083F3108801F0E2FF002383F3108808BDBF
:104B200008B5012383F3108801F0DAFF002383F333
:104B3000108808BD10B5012383F3108801F088FFA9
:104B4000044648B1194B9A780AB95B7D43B90023F2
:104B500083F31088204610BD80F31088204610BDD6
:104B600002F0A4FA0128F2D101F0E0FFD0B900224E
:104B700064210F4802F0A6FA0E4B1B7F7BB94FF061
:104B800080420D4801210160C2F80031116000BF70
:104B900000BF00BF00BFD2F80031002BFBD002F0F5
:104BA00057FAD4E7054801F0D5FFE0E78409002073
:104BB000396B00005009002014050040B9060900B7
:104BC00008B5012383F3108801F080FF002383F3ED
:104BD000108808BD01F076BF01F072BF01F07ABF06
:104BE00001F080BF38B505460C4641B165B1084BB0
:104BF000C3E901450020BDE8384001F0EFBF05489A
:104C000001F0A8FF002DF2D1034801F0A3FFEEE769
:104C10003C090020B8030900B9030900054A064908
:104C2000D2F81835487723F4E02343EA0043C2F86A
:104C3000183570470010004050090020034A044B0B
:104C400082F83000C3F80C05704700BF50090020FF
:104C500000100040054B83F8320008B1012803D151
:104C6000034BC3F810057047704700BF5009002080
:104C70000010004010B5064B1B68044613B1054BED
:104C80001C7510BD044801F065FF024B1C7510BD7A
:104C9000B40900209C09002073040900014B187618
:104CA000704700BF50090020014B1877704700BFC4
:104CB000500900202DE9F047AB4C23698AB023B39B
:104CC000636822786BB1013B022A63600CD0002B31
:104CD00000F0A980A54DA64AA378E96811605BB9E8
:104CE000A9E0022A40F09F80A04DA14AA378E9687C
:104CF0001160002B00F0F48001F042FF637D002B77
:104D000040F002810AB0BDE8F08702F0D5F9002832
:104D1000D6D12378012B00F0A580022B6ED001F0B4
:104D20002FFF6368E3B12678013B022E636000D059
:104D3000CBB18E4D8E4FA278EB683B60D2B1637DD4
:104D4000002B40F0928001F0BFFB01284ED90AA849
:104D5000032300F8143D01F07BFB0AB0BDE8F087A7
:104D60002678022EE5D0814D814FA278AB683B605A
:104D7000002AE4D194F80180B04579D0002E00F0EB
:104D8000C680B8F1000F00F005817A4BDFF8008291
:104D90000026C3F8546500F0C7FD2378C8F81060FA
:104DA000012BC8E90066C8E9026600F08981022B80
:104DB00000F094816368FBB1EB683B600AA80422B1
:104DC00000F8142D6278227001F042FB00206D681B
:104DD00001F098FE21698D4240F27B816648691A94
:104DE000012202F06FF900232361ACE7634801F070
:104DF000B1FE0AB0BDE8F087AB68DEE7604B18781B
:104E0000033801288CBF00200120002887D0574B91
:104E100059485B685B0819460122236102F052F988
:104E20000AB0BDE8F087514D514AA378A9681160D6
:104E3000002B7FF461AF01F0A3FE00206D6801F04C
:104E400061FE21698D4203D84E4801F083FE21693D
:104E50004948691A012202F035F9002323610AB09A
:104E6000BDE8F08700F054FDCFE7FFF7C1F86AE72F
:104E7000012E00F0AE80C0F02181022E54D04248B5
:104E800001F068FE6E7E012E7FF45DAF2778022F61
:104E90003FF459AF6368002B7FF455AF002F00F04B
:104EA0006081012F40F0598101F0CCFD00287FF492
:104EB0004AAF01F085FB00287FF445AF02F0F6F819
:104EC00001283FF440AF02F0CFF82B7F13B94FF029
:104ED00080435F60002001F015FE0023636032E72D
:104EE000274E3378033B012B3BD9284F01F048FE76
:104EF000D7F8088501F05CFE80450DD13378002B92
:104F00009BD1FEF73BFF98E7FFF772F8FAE6FFF751
:104F1000BDF894F8018034E701F04AFEC7F80805AF
:104F200001F070FEA075ECE7184ED6F8087501F098
:104F30003FFE874240F0E580114B1B780BB9FEF72E
:104F40001DFF00206E6801F0DDFD21698E4240F2F8
:104F5000B0800948711A012202F0B4F800232361DD
:104F600090E76B68044855E7840900205009002049
:104F70003C09002000F00140396B00000B050900DE
:104F800049090020DB060900D50409000010004093
:104F90009C090020964B4FF44072C3F8082501F09D
:104FA00051FD00283FF4F1AE022840F2B280032800
:104FB0007FF4EBAECDE90088434642464146404689
:104FC00001F066FC04283FF4E0AE8A4801F0C2FD1F
:104FD000DBE6039200F0A8FC01F034FD039A002800
:104FE00000F09C806B8B1BB12189994280F0D880A6
:104FF00002F062F8002840F0AC807F4BD3F80865DF
:1050000001F0D6FD864202D06389013363817B4E75
:105010003378B3B92378022B01D063688BB101F0E8
:10502000B7FB074600F0BEF9A27D8DF819000723F3
:1050300005A88DF818708DF81A208DF8143001F03D
:1050400007FA0023337001F0B3FD6B4BC3F808057A
:1050500001F0D8FDA07501F0F5FC012807D001F0A2
:10506000F1FC022802D0664801F074FD002000F037
:1050700027FB02F0CBF85E4B624AC3F8500512687A
:10508000614E5268C3F85425306850B10378002B44
:1050900040F0A680037923B100F072F9306800F087
:1050A00051F901202E6801F02DFD21698E423FF655
:1050B00050AF564801F04EFD21694AE7104641E7DE
:1050C00001F0C0FC00283FD12378022B3FF474AEDE
:1050D00070E64E4801F03EFD21697FE600F024FCB9
:1050E0004B4BC8F810601E7001F0ACFC0328EBD1EC
:1050F000CDE90066334632463146304601F0C8FB02
:10510000E2E701F055FDC6F8080501F07BFDA0754A
:1051100015E74146404601F0B7FA53E701F0D4F9EC
:105120000128BED92378022B2AD0666846BBE068E6
:1051300001F054FD304601F06BFD01F047FA002804
:10514000AFD0FFF713FAACE73146304601F09CFAD6
:10515000BAE7304801F0FEFC4FE72F4801F0FAFCB7
:10516000F1E501F0A3FF01283FF4EDAD01F07CFF74
:105170002B7F002B7FF4AEAE4FF080435E60A9E63C
:1051800001F05AFD00288CD12B7E23B901F03AFDA5
:10519000E368984285D101F019FA002881D0D0E760
:1051A0001046314601F070FA01F0F8FAB4F80890B0
:1051B000B4F80A80824601F0EBFA074600F0F2F8F4
:1051C0008DF8210005A8CDF818A0ADF81C90ADF819
:1051D0001E808DF820708DF8146001F039F960E7B9
:1051E00002F014F8316800F04BF8306852E700BF65
:1051F00000F001404802090000100040480900206A
:105200009C060900B40900204C090020DB060900B7
:105210004909002081050900EF04090038B5124B47
:10522000124D1B685B7D2BB1012000F0B3FA2B8976
:1052300001332B810E4A0F4B0020C2F85405D3E9ED
:105240000014641A01F05EFC29698C4203D80A48F4
:1052500001F080FC29690948611A012201F032FF3E
:1052600000232B6138BD00BFB40900208409002051
:1052700000F0014050090020DB060900396B0000F6
:1052800070B48B682A4A0024C3F840410B7B8C68B9
:10529000A23304F5A07442F833400B7B4C78CD78F0
:1052A000A233002C36D0234C02EBC30304EB85045D
:1052B0005C604A7B1E4B204C204EA23243F83200E9
:1052C0004A7B8D68A23203EBC20200205560C4F80D
:1052D0000C01C4F810018A7BA23243F832608A7B49
:1052E0004878CC78A232E0B9124803EBC20300EB55
:1052F000840058600B7B487B8D7B0D4C012202FAA9
:1053000003F302FA00F10B43AA401343C4F8043537
:1053100070BC70470A4C02EBC30304EB85045C606D
:10532000C7E7074803EBC20300EB84005860E1E7DE
:1053300000F0014030600040001000400C110040BF
:105340006060004083680C4A002110B4C3F840112B
:10535000C37B0A4CA233012142F83340C37B8468EB
:10536000A23302EBC3035C60C37B01FA03F3C2F810
:1053700004355DF8044B704700F001401011004007
:105380004279C3792AB90C33054A012142F8231026
:1053900070471833024A012142F82310704700BFBA
:1053A00000600040014B1878704700BFBC09002026
:1053B000F0B59C4C9C4B9D4A0225C4F880500026B9
:1053C000C4F880504FF0FF37C4F880510124C3F86F
:1053D0000873C3F80062C3F810611C619C61137804
:1053E000A34200F02F81023B012B40F2C780013C19
:1053F00000BF00BF00BF00BF00BF00BF00BF00BFB5
:1054000000BF00BF00BF00BF00BF00BF00BF00BFA4
:1054100000BF00BF00BF00BF00BF00BF00BF00BF94
:1054200000BF00BF00BF00BF00BF00BF00BF00BF84
:1054300000BF00BF00BF00BF00BF00BF00BF00BF74
:1054400000BF00BF00BF00BF00BF00BF00BF00BF64
:1054500000BF00BF00BF00BF00BF00BF00BF00BF54
:1054600000BF00BFC3D1704C6E4D714FDFF8CCE16F
:10547000DFF8CCC100234FF0FF36C4F81031C4F878
:105480000032C4F808630226C4F80C31C5F8806104
:10549000C4F80031C4F81031C4F804312E6003247C
:1054A0003960CEF800006349634813705470CCF83B
:1054B0006405CCF860152E6039685360136113756C
:1054C00053759375002953D00B79002B52D08B68FC
:1054D00003200422C3F80805C3F810250A7C002025
:1054E00040F20115C2F181020124C3F84025C3F83E
:1054F0000052C3F80405DC60C3F840010B79D3B156
:10550000CB798A7948799B0003F18043120203F535
:10551000C04302F47C5242F40032C3F81025D3F8A1
:105520001025002872D0C3F81025D3F8102542F0BA
:105530000302C3F810250B78D3B1CB788A78497869
:105540009B0003F18043120203F5C04302F47C5236
:1055500042F40032C3F81025D3F8102500294AD0B0
:10556000C3F81025D3F8102542F00302C3F8102524
:105570002E48F0BD0B78002BFAD0A8E7013D00BF04
:1055800000BF00BF00BF00BF00BF00BF00BF00BF23
:1055900000BF00BF00BF00BF00BF00BF00BF00BF13
:1055A00000BF00BF00BF00BF00BF00BF00BF00BF03
:1055B00000BF00BF00BF00BF00BF00BF00BF00BFF3
:1055C00000BF00BF00BF00BF00BF00BF00BF00BFE3
:1055D00000BF00BF00BF00BF00BF00BF00BF00BFD3
:1055E00000BF00BF00BF00BF00BF00BF00BF00BFC3
:1055F00000BFC3D137E742F48012C3F81025D3F8B7
:10560000102542F00302C3F81025B1E742F48012DE
:10561000C3F81025D3F8102542F00302C3F8102573
:1056200089E700BF00E100E000100040C009002051
:10563000DC0900200411004014100040B8090020CB
:1056400000F001400623013B00BF00BF00BF00BFC8
:1056500000BF00BF00BF00BF00BF00BF00BF00BF52
:1056600000BF00BF00BF00BF00BF00BF00BF00BF42
:1056700000BF00BF00BF00BF00BF00BF00BF00BF32
:1056800000BF00BF00BF00BF00BF00BF00BF00BF22
:1056900000BF00BF00BF00BF00BF00BF00BF00BF12
:1056A00000BF00BF00BF00BF00BF00BF00BF00BF02
:1056B00000BF00BF00BF00BF00BF00BFC3D1D2E624
:1056C0002DE9F8432C4A2D4BDFF8C4802C4C2D4E8D
:1056D0004FF0FF350221C2F80853C3F88011D8F803
:1056E0000010607000236375D1F800E0C4F808E092
:1056F0000701D1F804C0F559A3610228C4E903C326
:10570000656006EB070921D8054699F80B0099F862
:105710000890C2F80092C2F80C31C2F81031C8B932
:10572000C2F804E5D2F8043503B3F319124A5B7AE0
:10573000C2F804330B7D4BB1022D07D102F5F032D4
:105740004FF480610023C2F80415A375012363752B
:10575000BDE8F883C2F804C5D2F80435002BE4D1C3
:10576000094801F0F7F9D8F80010DEE7074801F022
:10577000F1F9D8F80010D8E70010004000E100E08F
:10578000C00900207C780000A1020A009C020A00E7
:10579000B8090020F8B5504C637D65780646002BAB
:1057A0003CD0237D002B35D101220023022D227510
:1057B00063752AD856B9494B1B6813B11A79002A68
:1057C00030D147492B010122CB581A606B1E012BA7
:1057D00010D9444B1B681B7D5BB1022D09D1424B94
:1057E000D3F804355B0564D5404BD3F80435002B62
:1057F0005AD0F8BD3A4B03EB05139B7A2370394B13
:105800001B681B7D002BE8D1F3E73948BDE8F84061
:1058100001F0A0B9374801F09DF9C5E7364801F01D
:1058200099F9BEE79A68304FC2F84061197B9868D1
:10583000A23100F5A07047F831001A7B5979D87968
:10584000A232002939D12D4907EBC20201EB8000B9
:105850005060264A24492A480026C2F80C615A7B27
:10586000A23241F832005A7B5879DE79A23258BB15
:10587000244801EBC20200EB860050601A7B597B82
:10588000194E012000FA01F100FA02F20A434FF02A
:10589000A041C6F80425D1F810259979CA40D2074D
:1058A0005CBF9B6818608CE71748BDE8F84001F0C2
:1058B00051B9164801F04EF996E7124907EBC202BA
:1058C00001EB80005060C4E70C4801EBC20200EB22
:1058D00086005060D2E700BFC0090020DC0900202C
:1058E0007C780000B809002000F001400010004062
:1058F000DD020A00B9020A00B8020A006060004036
:105900000C11004030600040E3020A00E2020A008D
:10591000044BD3F80401A0F10100B0FA80F0400973
:10592000704700BF0010004030B4784A784B794986
:105930000220C2F880000024C2F880014FF0FF3539
:105940000122C3F80853C3F80042C3F810411A619A
:105950009A610B78934200F09B80023B012B5AD94D
:10596000013A00BF00BF00BF00BF00BF00BF00BFC3
:1059700000BF00BF00BF00BF00BF00BF00BF00BF2F
:1059800000BF00BF00BF00BF00BF00BF00BF00BF1F
:1059900000BF00BF00BF00BF00BF00BF00BF00BF0F
:1059A00000BF00BF00BF00BF00BF00BF00BF00BFFF
:1059B00000BF00BF00BF00BF00BF00BF00BF00BFEF
:1059C00000BF00BF00BF00BF00BF00BF00BF00BFDF
:1059D00000BF00BF00BFC3D14D4A4C4800234FF069
:1059E000FF34C2F8103103254B750B704B60C2F8C1
:1059F00000320B75C2F808430224C2F80C314D7016
:105A0000C0F88041C2F80031C2F81031C2F8043148
:105A1000046030BC7047013800BF00BF00BF00BF4A
:105A200000BF00BF00BF00BF00BF00BF00BF00BF7E
:105A300000BF00BF00BF00BF00BF00BF00BF00BF6E
:105A400000BF00BF00BF00BF00BF00BF00BF00BF5E
:105A500000BF00BF00BF00BF00BF00BF00BF00BF4E
:105A600000BF00BF00BF00BF00BF00BF00BF00BF3E
:105A700000BF00BF00BF00BF00BF00BF00BF00BF2E
:105A800000BF00BF00BF00BF00BF00BFC3D1A3E77E
:105A90000623013B00BF00BF00BF00BF00BF00BF27
:105AA00000BF00BF00BF00BF00BF00BF00BF00BFFE
:105AB00000BF00BF00BF00BF00BF00BF00BF00BFEE
:105AC00000BF00BF00BF00BF00BF00BF00BF00BFDE
:105AD00000BF00BF00BF00BF00BF00BF00BF00BFCE
